{
  "contractName": "RegisterAP",
  "abi": [
    {
      "constant": true,
      "inputs": [],
      "name": "ap",
      "outputs": [
        {
          "name": "",
          "type": "string"
        }
      ],
      "payable": false,
      "stateMutability": "view",
      "type": "function"
    },
    {
      "constant": true,
      "inputs": [
        {
          "name": "",
          "type": "uint256"
        },
        {
          "name": "",
          "type": "uint256"
        }
      ],
      "name": "registers",
      "outputs": [
        {
          "name": "",
          "type": "address"
        }
      ],
      "payable": false,
      "stateMutability": "view",
      "type": "function"
    },
    {
      "constant": true,
      "inputs": [],
      "name": "timestamp",
      "outputs": [
        {
          "name": "",
          "type": "string"
        }
      ],
      "payable": false,
      "stateMutability": "view",
      "type": "function"
    },
    {
      "constant": true,
      "inputs": [
        {
          "name": "",
          "type": "uint256"
        },
        {
          "name": "",
          "type": "uint256"
        }
      ],
      "name": "aptimestamp",
      "outputs": [
        {
          "name": "",
          "type": "string"
        }
      ],
      "payable": false,
      "stateMutability": "view",
      "type": "function"
    },
    {
      "anonymous": false,
      "inputs": [
        {
          "indexed": true,
          "name": "_idVehicle",
          "type": "address"
        },
        {
          "indexed": true,
          "name": "_idPassenger",
          "type": "address"
        },
        {
          "indexed": true,
          "name": "_idDriver",
          "type": "address"
        },
        {
          "indexed": false,
          "name": "_ap",
          "type": "string"
        },
        {
          "indexed": false,
          "name": "_timestamp",
          "type": "string"
        },
        {
          "indexed": false,
          "name": "idRegister",
          "type": "uint256"
        }
      ],
      "name": "registerAP",
      "type": "event"
    },
    {
      "constant": false,
      "inputs": [
        {
          "name": "idPassenger",
          "type": "address"
        },
        {
          "name": "idDriver",
          "type": "address"
        },
        {
          "name": "passedAp",
          "type": "string"
        },
        {
          "name": "passedTimestamp",
          "type": "string"
        }
      ],
      "name": "regisAPandTime",
      "outputs": [
        {
          "name": "",
          "type": "uint256"
        }
      ],
      "payable": false,
      "stateMutability": "nonpayable",
      "type": "function"
    },
    {
      "constant": true,
      "inputs": [
        {
          "name": "index",
          "type": "uint256"
        }
      ],
      "name": "getSpecificRegister",
      "outputs": [
        {
          "name": "",
          "type": "address[3]"
        }
      ],
      "payable": false,
      "stateMutability": "view",
      "type": "function"
    },
    {
      "constant": true,
      "inputs": [
        {
          "name": "index",
          "type": "uint256"
        }
      ],
      "name": "getSpecificApTimestamp",
      "outputs": [
        {
          "name": "",
          "type": "string[2]"
        }
      ],
      "payable": false,
      "stateMutability": "view",
      "type": "function"
    }
  ],
  "bytecode": "0x608060405234801561001057600080fd5b506111dc806100206000396000f3fe608060405260043610610082576000357c0100000000000000000000000000000000000000000000000000000000900463ffffffff16806288781d146100875780630eb49b63146100c45780633c4f743c146101015780635d7eef641461012c57806368b188c814610169578063b80777ea146101a6578063bb55eaf3146101d1575b600080fd5b34801561009357600080fd5b506100ae60048036036100a99190810190610ce1565b61020e565b6040516100bb9190611022565b60405180910390f35b3480156100d057600080fd5b506100eb60048036036100e69190810190610d74565b610538565b6040516100f89190610f99565b60405180910390f35b34801561010d57600080fd5b50610116610652565b6040516101239190610fbb565b60405180910390f35b34801561013857600080fd5b50610153600480360361014e9190810190610d74565b6106f0565b6040516101609190610f7e565b60405180910390f35b34801561017557600080fd5b50610190600480360361018b9190810190610d9d565b6107ae565b60405161019d9190610f63565b60405180910390f35b3480156101b257600080fd5b506101bb610801565b6040516101c89190610fbb565b60405180910390f35b3480156101dd57600080fd5b506101f860048036036101f39190810190610d9d565b61089f565b6040516102059190610fbb565b60405180910390f35b6000826002908051906020019061022692919061096d565b50816003908051906020019061023d92919061096d565b5060008080549050905060006060604051908101604052803373ffffffffffffffffffffffffffffffffffffffff1673ffffffffffffffffffffffffffffffffffffffff1681526020018873ffffffffffffffffffffffffffffffffffffffff1673ffffffffffffffffffffffffffffffffffffffff1681526020018773ffffffffffffffffffffffffffffffffffffffff1673ffffffffffffffffffffffffffffffffffffffff16815250908060018154018082558091505090600182039060005260206000209060030201600090919290919091509060036103229291906109ed565b50506001604080519081016040528060028054600181600116156101000203166002900480601f0160208091040260200160405190810160405280929190818152602001828054600181600116156101000203166002900480156103c75780601f1061039c576101008083540402835291602001916103c7565b820191906000526020600020905b8154815290600101906020018083116103aa57829003601f168201915b5050505050815260200160038054600181600116156101000203166002900480601f0160208091040260200160405190810160405280929190818152602001828054600181600116156101000203166002900480156104675780601f1061043c57610100808354040283529160200191610467565b820191906000526020600020905b81548152906001019060200180831161044a57829003601f168201915b5050505050815250908060018154018082558091505090600182039060005260206000209060020201600090919290919091509060026104a8929190610a6a565b50508473ffffffffffffffffffffffffffffffffffffffff168673ffffffffffffffffffffffffffffffffffffffff163373ffffffffffffffffffffffffffffffffffffffff167fbe24d76516dd5e00978f0050efed7536544265de26f62e5e41d98c15dcd8914c600260038660405161052493929190610fdd565b60405180910390a480915050949350505050565b610540610abd565b60008210158015610555575060018054905082105b151561056057600080fd5b60018281548110151561056f57fe5b9060005260206000209060020201600280602002604051908101604052809291906000905b82821015610647578382018054600181600116156101000203166002900480601f0160208091040260200160405190810160405280929190818152602001828054600181600116156101000203166002900480156106335780601f1061060857610100808354040283529160200191610633565b820191906000526020600020905b81548152906001019060200180831161061657829003601f168201915b505050505081526020019060010190610594565b505050509050919050565b60028054600181600116156101000203166002900480601f0160208091040260200160405190810160405280929190818152602001828054600181600116156101000203166002900480156106e85780601f106106bd576101008083540402835291602001916106e8565b820191906000526020600020905b8154815290600101906020018083116106cb57829003601f168201915b505050505081565b6106f8610ae4565b6000821015801561070d575060008054905082105b151561071857600080fd5b60008281548110151561072757fe5b90600052602060002090600302016003806020026040519081016040528092919082600380156107a2576020028201915b8160009054906101000a900473ffffffffffffffffffffffffffffffffffffffff1673ffffffffffffffffffffffffffffffffffffffff1681526020019060010190808311610758575b50505050509050919050565b6000828154811015156107bd57fe5b9060005260206000209060030201816003811015156107d857fe5b016000915091509054906101000a900473ffffffffffffffffffffffffffffffffffffffff1681565b60038054600181600116156101000203166002900480601f0160208091040260200160405190810160405280929190818152602001828054600181600116156101000203166002900480156108975780601f1061086c57610100808354040283529160200191610897565b820191906000526020600020905b81548152906001019060200180831161087a57829003601f168201915b505050505081565b6001828154811015156108ae57fe5b9060005260206000209060020201816002811015156108c957fe5b01600091509150508054600181600116156101000203166002900480601f0160208091040260200160405190810160405280929190818152602001828054600181600116156101000203166002900480156109655780601f1061093a57610100808354040283529160200191610965565b820191906000526020600020905b81548152906001019060200180831161094857829003601f168201915b505050505081565b828054600181600116156101000203166002900490600052602060002090601f016020900481019282601f106109ae57805160ff19168380011785556109dc565b828001600101855582156109dc579182015b828111156109db5782518255916020019190600101906109c0565b5b5090506109e99190610b07565b5090565b8260038101928215610a59579160200282015b82811115610a585782518260006101000a81548173ffffffffffffffffffffffffffffffffffffffff021916908373ffffffffffffffffffffffffffffffffffffffff16021790555091602001919060010190610a00565b5b509050610a669190610b2c565b5090565b8260028101928215610aac579160200282015b82811115610aab578251829080519060200190610a9b929190610b6f565b5091602001919060010190610a7d565b5b509050610ab99190610bef565b5090565b60408051908101604052806002905b6060815260200190600190039081610acc5790505090565b606060405190810160405280600390602082028038833980820191505090505090565b610b2991905b80821115610b25576000816000905550600101610b0d565b5090565b90565b610b6c91905b80821115610b6857600081816101000a81549073ffffffffffffffffffffffffffffffffffffffff021916905550600101610b32565b5090565b90565b828054600181600116156101000203166002900490600052602060002090601f016020900481019282601f10610bb057805160ff1916838001178555610bde565b82800160010185558215610bde579182015b82811115610bdd578251825591602001919060010190610bc2565b5b509050610beb9190610b07565b5090565b610c1891905b80821115610c145760008181610c0b9190610c1b565b50600101610bf5565b5090565b90565b50805460018160011615610100020316600290046000825580601f10610c415750610c60565b601f016020900490600052602060002090810190610c5f9190610b07565b5b50565b6000610c6f8235611133565b905092915050565b600082601f8301121515610c8a57600080fd5b8135610c9d610c988261106a565b61103d565b91508082526020830160208301858383011115610cb957600080fd5b610cc483828461114f565b50505092915050565b6000610cd98235611145565b905092915050565b60008060008060808587031215610cf757600080fd5b6000610d0587828801610c63565b9450506020610d1687828801610c63565b935050604085013567ffffffffffffffff811115610d3357600080fd5b610d3f87828801610c77565b925050606085013567ffffffffffffffff811115610d5c57600080fd5b610d6887828801610c77565b91505092959194509250565b600060208284031215610d8657600080fd5b6000610d9484828501610ccd565b91505092915050565b60008060408385031215610db057600080fd5b6000610dbe85828601610ccd565b9250506020610dcf85828601610ccd565b9150509250929050565b610de2816110f7565b82525050565b610df1816110bc565b610dfa82611096565b60005b82811015610e2c57610e10858351610dd9565b610e19826110dd565b9150602085019450600181019050610dfd565b5050505050565b6000610e3e826110c7565b83602082028501610e4e856110a0565b60005b84811015610e87578383038852610e69838351610e98565b9250610e74826110ea565b9150602088019750600181019050610e51565b508196508694505050505092915050565b6000610ea3826110d2565b808452610eb781602086016020860161115e565b610ec081611191565b602085010191505092915050565b600081546001811660008114610eeb5760018114610f0b57610f4c565b607f600283041680865260ff198316602087015260408601935050610f4c565b60028204808652602086019550610f21856110aa565b60005b82811015610f4357815481890152600182019150602081019050610f24565b80880195505050505b505092915050565b610f5d81611129565b82525050565b6000602082019050610f786000830184610dd9565b92915050565b6000606082019050610f936000830184610de8565b92915050565b60006020820190508181036000830152610fb38184610e33565b905092915050565b60006020820190508181036000830152610fd58184610e98565b905092915050565b60006060820190508181036000830152610ff78186610ece565b9050818103602083015261100b8185610ece565b905061101a6040830184610f54565b949350505050565b60006020820190506110376000830184610f54565b92915050565b6000604051905081810181811067ffffffffffffffff8211171561106057600080fd5b8060405250919050565b600067ffffffffffffffff82111561108157600080fd5b601f19601f8301169050602081019050919050565b6000819050919050565b6000819050919050565b60008160005260206000209050919050565b600060039050919050565b600060029050919050565b600081519050919050565b6000602082019050919050565b6000602082019050919050565b600061110282611109565b9050919050565b600073ffffffffffffffffffffffffffffffffffffffff82169050919050565b6000819050919050565b600061113e82611109565b9050919050565b6000819050919050565b82818337600083830152505050565b60005b8381101561117c578082015181840152602081019050611161565b8381111561118b576000848401525b50505050565b6000601f19601f830116905091905056fea265627a7a72305820187993d3644c2dc43cf94e3da4cb8811b82e2c6c9f9c556ea8078bc07271e27c6c6578706572696d656e74616cf50037",
  "source": "pragma solidity ^0.5.0;\npragma experimental ABIEncoderV2;\n\ncontract RegisterAP {\n\t\n\taddress[3][] public registers;\n\tstring [2][] public aptimestamp;\n\t\n\tstring public ap;\n\tstring public timestamp;\n\t\n\tevent registerAP(address indexed _idVehicle,address indexed _idPassenger, address indexed _idDriver, string _ap, string _timestamp, uint idRegister);\n\t\n\t//Register AP and timestamp\n\tfunction regisAPandTime(address idPassenger, address idDriver, string memory passedAp, string memory passedTimestamp) public returns (uint){\n\t\tap=passedAp;\n\t\ttimestamp=passedTimestamp;\n\t\t//require(!StringUtils.equal(ap,\"\") && !StringUtils.equal(timestamp,\"\"));\n\t\t\n\t\tuint idRegister=registers.length;\n\t\tregisters.push([msg.sender,idPassenger,idDriver]);\n\t\t\n\t\taptimestamp.push([ap,timestamp]);\n\t\temit registerAP(msg.sender,idPassenger,idDriver,ap,timestamp,idRegister);\n\t\treturn idRegister;\n\t}\n\t\n\tfunction getSpecificRegister(uint index) public view returns (address[3] memory){\n\t\trequire(index>=0 && index<registers.length);\n\t\treturn registers[index];\n\t}\n\t\n\tfunction getSpecificApTimestamp(uint index) public view returns (string[2] memory){\n\t\trequire(index>=0 && index<aptimestamp.length);\n\t\treturn aptimestamp[index];\n\t}\n}\n",
  "sourcePath": "/home/rromeroor/Besu/besu-22.1.1/transport-app/contracts/RegisterAP.sol",
  "compiler": {
    "name": "solc",
    "version": "0.5.0+commit.1d4f565a.Emscripten.clang"
  },
  "schemaVersion": "3.4.7",
  "updatedAt": "2022-04-19T14:12:44.700Z",
  "networkType": "ethereum",
  "devdoc": {
    "methods": {}
  },
  "userdoc": {
    "methods": {}
  }
}