{
  "contractName": "SafeMov",
  "abi": [
    {
      "constant": true,
      "inputs": [],
      "name": "ap",
      "outputs": [
        {
          "name": "",
          "type": "string"
        }
      ],
      "payable": false,
      "stateMutability": "view",
      "type": "function"
    },
    {
      "constant": true,
      "inputs": [],
      "name": "rssi",
      "outputs": [
        {
          "name": "",
          "type": "string"
        }
      ],
      "payable": false,
      "stateMutability": "view",
      "type": "function"
    },
    {
      "constant": true,
      "inputs": [],
      "name": "dest",
      "outputs": [
        {
          "name": "",
          "type": "string"
        }
      ],
      "payable": false,
      "stateMutability": "view",
      "type": "function"
    },
    {
      "constant": true,
      "inputs": [],
      "name": "timestamp",
      "outputs": [
        {
          "name": "",
          "type": "string"
        }
      ],
      "payable": false,
      "stateMutability": "view",
      "type": "function"
    },
    {
      "constant": true,
      "inputs": [],
      "name": "orig",
      "outputs": [
        {
          "name": "",
          "type": "string"
        }
      ],
      "payable": false,
      "stateMutability": "view",
      "type": "function"
    },
    {
      "anonymous": false,
      "inputs": [
        {
          "indexed": true,
          "name": "_idPassenger",
          "type": "address"
        },
        {
          "indexed": true,
          "name": "_idDriver",
          "type": "address"
        },
        {
          "indexed": true,
          "name": "_idVehicle",
          "type": "address"
        },
        {
          "indexed": false,
          "name": "_cost",
          "type": "uint256"
        },
        {
          "indexed": false,
          "name": "_timestamp",
          "type": "string"
        },
        {
          "indexed": false,
          "name": "origin",
          "type": "string"
        },
        {
          "indexed": false,
          "name": "destination",
          "type": "string"
        }
      ],
      "name": "initT",
      "type": "event"
    },
    {
      "anonymous": false,
      "inputs": [
        {
          "indexed": true,
          "name": "_tripTransaction",
          "type": "bytes32"
        },
        {
          "indexed": false,
          "name": "_ap",
          "type": "string"
        },
        {
          "indexed": false,
          "name": "_timestamp",
          "type": "string"
        },
        {
          "indexed": false,
          "name": "_rssi",
          "type": "string"
        }
      ],
      "name": "registerAP",
      "type": "event"
    },
    {
      "anonymous": false,
      "inputs": [
        {
          "indexed": true,
          "name": "_tripTransaction",
          "type": "bytes32"
        },
        {
          "indexed": false,
          "name": "_cost",
          "type": "uint256"
        }
      ],
      "name": "endT",
      "type": "event"
    },
    {
      "constant": false,
      "inputs": [
        {
          "name": "idDriver",
          "type": "address"
        },
        {
          "name": "idVehicle",
          "type": "address"
        },
        {
          "name": "cost",
          "type": "uint256"
        },
        {
          "name": "passedTimestamp",
          "type": "string"
        },
        {
          "name": "passedOrigin",
          "type": "string"
        },
        {
          "name": "passedDestination",
          "type": "string"
        }
      ],
      "name": "initTrip",
      "outputs": [
        {
          "name": "",
          "type": "bool"
        }
      ],
      "payable": true,
      "stateMutability": "payable",
      "type": "function"
    },
    {
      "constant": false,
      "inputs": [
        {
          "name": "tripTransaction",
          "type": "bytes32"
        },
        {
          "name": "passedAp",
          "type": "string"
        },
        {
          "name": "passedTimestamp",
          "type": "string"
        },
        {
          "name": "passedRSSI",
          "type": "string"
        }
      ],
      "name": "regisAPandTime",
      "outputs": [
        {
          "name": "",
          "type": "bool"
        }
      ],
      "payable": false,
      "stateMutability": "nonpayable",
      "type": "function"
    },
    {
      "constant": false,
      "inputs": [
        {
          "name": "tripTransaction",
          "type": "bytes32"
        },
        {
          "name": "driver",
          "type": "address"
        },
        {
          "name": "cost",
          "type": "uint256"
        }
      ],
      "name": "endTrip",
      "outputs": [
        {
          "name": "",
          "type": "bool"
        }
      ],
      "payable": false,
      "stateMutability": "nonpayable",
      "type": "function"
    },
    {
      "constant": false,
      "inputs": [
        {
          "name": "amount",
          "type": "uint256"
        }
      ],
      "name": "widthdraw",
      "outputs": [],
      "payable": false,
      "stateMutability": "nonpayable",
      "type": "function"
    }
  ],
  "bytecode": "0x6080604052670de0b6b3a764000060005534801561001c57600080fd5b50610e6a8061002c6000396000f3fe608060405260043610610099576000357c0100000000000000000000000000000000000000000000000000000000900463ffffffff168063101af4081461009e5780633c4f743c146100db5780634185ad3b1461010657806384b366dc14610131578063adfbae4d1461015c578063b80777ea14610199578063de9a6ef6146101c4578063e0da260c146101f4578063e1a0200d1461021d575b600080fd5b3480156100aa57600080fd5b506100c560048036036100c09190810190610a5f565b610248565b6040516100d29190610c0d565b60405180910390f35b3480156100e757600080fd5b506100f06102da565b6040516100fd9190610c28565b60405180910390f35b34801561011257600080fd5b5061011b610378565b6040516101289190610c28565b60405180910390f35b34801561013d57600080fd5b50610146610416565b6040516101539190610c28565b60405180910390f35b34801561016857600080fd5b50610183600480360361017e9190810190610a10565b6104b4565b6040516101909190610c0d565b60405180910390f35b3480156101a557600080fd5b506101ae61058d565b6040516101bb9190610c28565b60405180910390f35b6101de60048036036101d9919081019061093f565b61062b565b6040516101eb9190610c0d565b60405180910390f35b34801561020057600080fd5b5061021b60048036036102169190810190610b0a565b610720565b005b34801561022957600080fd5b5061023261076a565b60405161023f9190610c28565b60405180910390f35b60008360039080519060200190610260929190610808565b508260049080519060200190610277929190610808565b50816005908051906020019061028e929190610808565b50847fa3fa521e85d469a423056ef2e7e5d6dc25721eda216d3cccd29cb9d7864df66d6003600460056040516102c693929190610c4a565b60405180910390a260019050949350505050565b60038054600181600116156101000203166002900480601f0160208091040260200160405190810160405280929190818152602001828054600181600116156101000203166002900480156103705780601f1061034557610100808354040283529160200191610370565b820191906000526020600020905b81548152906001019060200180831161035357829003601f168201915b505050505081565b60058054600181600116156101000203166002900480601f01602080910402602001604051908101604052809291908181526020018280546001816001161561010002031660029004801561040e5780601f106103e35761010080835404028352916020019161040e565b820191906000526020600020905b8154815290600101906020018083116103f157829003601f168201915b505050505081565b60028054600181600116156101000203166002900480601f0160208091040260200160405190810160405280929190818152602001828054600181600116156101000203166002900480156104ac5780601f10610481576101008083540402835291602001916104ac565b820191906000526020600020905b81548152906001019060200180831161048f57829003601f168201915b505050505081565b60008273ffffffffffffffffffffffffffffffffffffffff163373ffffffffffffffffffffffffffffffffffffffff161415156104f057600080fd5b3373ffffffffffffffffffffffffffffffffffffffff166108fc600a600960005486020281151561051d57fe5b049081150290604051600060405180830381858888f19350505050158015610549573d6000803e3d6000fd5b50837fa9dce98d64e4d82c91cf869fba1a1ab6d450439e649003a807e1d977a41316178360405161057a9190610c96565b60405180910390a2600190509392505050565b60048054600181600116156101000203166002900480601f0160208091040260200160405190810160405280929190818152602001828054600181600116156101000203166002900480156106235780601f106105f857610100808354040283529160200191610623565b820191906000526020600020905b81548152906001019060200180831161060657829003601f168201915b505050505081565b6000846000543481151561063b57fe5b0414151561064857600080fd5b836003908051906020019061065e929190610808565b508260019080519060200190610675929190610808565b50816002908051906020019061068c929190610808565b508573ffffffffffffffffffffffffffffffffffffffff168773ffffffffffffffffffffffffffffffffffffffff163373ffffffffffffffffffffffffffffffffffffffff167f395c4f4daacda51479c24fe03f9ae81ef3b9c3d5ac20a59af22fbdbd6b9968cf8860036001600260405161070a9493929190610cb1565b60405180910390a4600190509695505050505050565b3373ffffffffffffffffffffffffffffffffffffffff166108fc829081150290604051600060405180830381858888f19350505050158015610766573d6000803e3d6000fd5b5050565b60018054600181600116156101000203166002900480601f0160208091040260200160405190810160405280929190818152602001828054600181600116156101000203166002900480156108005780601f106107d557610100808354040283529160200191610800565b820191906000526020600020905b8154815290600101906020018083116107e357829003601f168201915b505050505081565b828054600181600116156101000203166002900490600052602060002090601f016020900481019282601f1061084957805160ff1916838001178555610877565b82800160010185558215610877579182015b8281111561087657825182559160200191906001019061085b565b5b5090506108849190610888565b5090565b6108aa91905b808211156108a657600081600090555060010161088e565b5090565b90565b60006108b98235610db7565b905092915050565b60006108cd8235610dc9565b905092915050565b600082601f83011215156108e857600080fd5b81356108fb6108f682610d38565b610d0b565b9150808252602083016020830185838301111561091757600080fd5b610922838284610ddd565b50505092915050565b60006109378235610dd3565b905092915050565b60008060008060008060c0878903121561095857600080fd5b600061096689828a016108ad565b965050602061097789828a016108ad565b955050604061098889828a0161092b565b945050606087013567ffffffffffffffff8111156109a557600080fd5b6109b189828a016108d5565b935050608087013567ffffffffffffffff8111156109ce57600080fd5b6109da89828a016108d5565b92505060a087013567ffffffffffffffff8111156109f757600080fd5b610a0389828a016108d5565b9150509295509295509295565b600080600060608486031215610a2557600080fd5b6000610a33868287016108c1565b9350506020610a44868287016108ad565b9250506040610a558682870161092b565b9150509250925092565b60008060008060808587031215610a7557600080fd5b6000610a83878288016108c1565b945050602085013567ffffffffffffffff811115610aa057600080fd5b610aac878288016108d5565b935050604085013567ffffffffffffffff811115610ac957600080fd5b610ad5878288016108d5565b925050606085013567ffffffffffffffff811115610af257600080fd5b610afe878288016108d5565b91505092959194509250565b600060208284031215610b1c57600080fd5b6000610b2a8482850161092b565b91505092915050565b610b3c81610d81565b82525050565b6000610b4d82610d76565b808452610b61816020860160208601610dec565b610b6a81610e1f565b602085010191505092915050565b600081546001811660008114610b955760018114610bb557610bf6565b607f600283041680865260ff198316602087015260408601935050610bf6565b60028204808652602086019550610bcb85610d64565b60005b82811015610bed57815481890152600182019150602081019050610bce565b80880195505050505b505092915050565b610c0781610dad565b82525050565b6000602082019050610c226000830184610b33565b92915050565b60006020820190508181036000830152610c428184610b42565b905092915050565b60006060820190508181036000830152610c648186610b78565b90508181036020830152610c788185610b78565b90508181036040830152610c8c8184610b78565b9050949350505050565b6000602082019050610cab6000830184610bfe565b92915050565b6000608082019050610cc66000830187610bfe565b8181036020830152610cd88186610b78565b90508181036040830152610cec8185610b78565b90508181036060830152610d008184610b78565b905095945050505050565b6000604051905081810181811067ffffffffffffffff82111715610d2e57600080fd5b8060405250919050565b600067ffffffffffffffff821115610d4f57600080fd5b601f19601f8301169050602081019050919050565b60008160005260206000209050919050565b600081519050919050565b60008115159050919050565b600073ffffffffffffffffffffffffffffffffffffffff82169050919050565b6000819050919050565b6000610dc282610d8d565b9050919050565b6000819050919050565b6000819050919050565b82818337600083830152505050565b60005b83811015610e0a578082015181840152602081019050610def565b83811115610e19576000848401525b50505050565b6000601f19601f830116905091905056fea265627a7a723058205ff907dc9e01dcf59d3fa142bc505fdcf95a72c7aafba166ce6aaebf4b0cebcd6c6578706572696d656e74616cf50037",
  "source": "pragma solidity ^0.5.0;\npragma experimental ABIEncoderV2;\n\ncontract SafeMov {\n\t\n\t//INITIAL VALUES\n\t//RegisterInitialTrip\n\tuint WEI_TO_ETH = 10 ** 18;\n\tstring public orig;\n\tstring public dest;\n\tevent initT(address indexed _idPassenger, address indexed _idDriver, address indexed _idVehicle, uint _cost, string _timestamp, string origin, string destination);\n\t\n\t//RegisterAPs\n\tstring public ap;\n\tstring public timestamp;\n\tstring public rssi;\n\t\n\tevent registerAP(bytes32 indexed _tripTransaction, string _ap, string _timestamp,string _rssi);\n\t\n\t//End Trip\n\tevent endT(bytes32 indexed _tripTransaction, uint _cost);\n\t\n\t\n\t//FUNCTIONS\n\t//Register initial Trip\n\tfunction initTrip(address idDriver, address idVehicle, uint cost, string memory passedTimestamp, string memory passedOrigin, string memory passedDestination) public payable returns (bool){\n\t\t//send eth to contract from passenger\n\t\trequire(uint(msg.value) / WEI_TO_ETH == cost);\n\t\tap=passedTimestamp;\t\t\n\t\torig=passedOrigin;\n\t\tdest=passedDestination;\n\t\temit initT(msg.sender, idDriver, idVehicle, cost,ap,orig,dest);\n\t\treturn true;\n\t}\n\t\n\t//Register AP and timestamp\n\tfunction regisAPandTime(bytes32 tripTransaction, string memory passedAp, string memory passedTimestamp, string memory passedRSSI) public returns (bool){\n\t\tap=passedAp;\n\t\ttimestamp=passedTimestamp;\n\t\trssi=passedRSSI;\n\t\temit registerAP(tripTransaction,ap,timestamp,rssi);\n\t\treturn true;\n\t}\n\t\n\t//End Trip\n\tfunction endTrip(bytes32 tripTransaction,address driver, uint cost) public returns (bool){\n\t\trequire(msg.sender == driver);\n\t\t//Transfer payment to driver\n\t\tmsg.sender.transfer(cost * WEI_TO_ETH * 9 / 10);\n\t\temit endT(tripTransaction, cost);\n\t\treturn true;\n\t}\n\t\n\tfunction widthdraw(uint amount) external {\n\t\t//only validators can widthdraw\n\t\t//require(msg.sender == '0x0');\n\t\tmsg.sender.transfer(amount);\n\t}\t\t\n}\n",
  "sourcePath": "/home/rromeroor/Besu/besu-22.1.1/transport-app/contracts/SafeMov.sol",
  "compiler": {
    "name": "solc",
    "version": "0.5.0+commit.1d4f565a.Emscripten.clang"
  },
  "schemaVersion": "3.4.6",
  "updatedAt": "2022-05-05T16:58:38.648Z",
  "networkType": "ethereum",
  "devdoc": {
    "methods": {}
  },
  "userdoc": {
    "methods": {}
  }
}