{
  "contractName": "SafeMov",
  "abi": [
    {
      "constant": true,
      "inputs": [],
      "name": "ap",
      "outputs": [
        {
          "name": "",
          "type": "string"
        }
      ],
      "payable": false,
      "stateMutability": "view",
      "type": "function"
    },
    {
      "constant": true,
      "inputs": [],
      "name": "timestamp",
      "outputs": [
        {
          "name": "",
          "type": "string"
        }
      ],
      "payable": false,
      "stateMutability": "view",
      "type": "function"
    },
    {
      "anonymous": false,
      "inputs": [
        {
          "indexed": true,
          "name": "_idPassenger",
          "type": "address"
        },
        {
          "indexed": true,
          "name": "_idDriver",
          "type": "address"
        },
        {
          "indexed": true,
          "name": "_idVehicle",
          "type": "address"
        },
        {
          "indexed": false,
          "name": "cost",
          "type": "uint256"
        }
      ],
      "name": "initT",
      "type": "event"
    },
    {
      "anonymous": false,
      "inputs": [
        {
          "indexed": true,
          "name": "_tripTransaction",
          "type": "bytes32"
        },
        {
          "indexed": false,
          "name": "_ap",
          "type": "string"
        },
        {
          "indexed": false,
          "name": "_timestamp",
          "type": "string"
        }
      ],
      "name": "registerAP",
      "type": "event"
    },
    {
      "anonymous": false,
      "inputs": [
        {
          "indexed": true,
          "name": "_tripTransaction",
          "type": "bytes32"
        },
        {
          "indexed": false,
          "name": "_cost",
          "type": "uint256"
        }
      ],
      "name": "endT",
      "type": "event"
    },
    {
      "constant": false,
      "inputs": [
        {
          "name": "idDriver",
          "type": "address"
        },
        {
          "name": "idVehicle",
          "type": "address"
        },
        {
          "name": "cost",
          "type": "uint256"
        }
      ],
      "name": "initTrip",
      "outputs": [
        {
          "name": "",
          "type": "bool"
        }
      ],
      "payable": true,
      "stateMutability": "payable",
      "type": "function"
    },
    {
      "constant": false,
      "inputs": [
        {
          "name": "tripTransaction",
          "type": "bytes32"
        },
        {
          "name": "passedAp",
          "type": "string"
        },
        {
          "name": "passedTimestamp",
          "type": "string"
        }
      ],
      "name": "regisAPandTime",
      "outputs": [
        {
          "name": "",
          "type": "bool"
        }
      ],
      "payable": false,
      "stateMutability": "nonpayable",
      "type": "function"
    },
    {
      "constant": false,
      "inputs": [
        {
          "name": "tripTransaction",
          "type": "bytes32"
        },
        {
          "name": "driver",
          "type": "address"
        },
        {
          "name": "cost",
          "type": "uint256"
        }
      ],
      "name": "endTrip",
      "outputs": [
        {
          "name": "",
          "type": "bool"
        }
      ],
      "payable": false,
      "stateMutability": "nonpayable",
      "type": "function"
    },
    {
      "constant": false,
      "inputs": [
        {
          "name": "amount",
          "type": "uint256"
        }
      ],
      "name": "widthdraw",
      "outputs": [],
      "payable": false,
      "stateMutability": "nonpayable",
      "type": "function"
    }
  ],
  "bytecode": "0x6080604052670de0b6b3a764000060005534801561001c57600080fd5b50610a658061002c6000396000f3fe608060405260043610610078576000357c0100000000000000000000000000000000000000000000000000000000900463ffffffff16806313efebcd1461007d5780633c4f743c146100ad578063adfbae4d146100d8578063b80777ea14610115578063e0da260c14610140578063e83a54e514610169575b600080fd5b61009760048036036100929190810190610657565b6101a6565b6040516100a49190610877565b60405180910390f35b3480156100b957600080fd5b506100c261024a565b6040516100cf9190610892565b60405180910390f35b3480156100e457600080fd5b506100ff60048036036100fa91908101906106a6565b6102e8565b60405161010c9190610877565b60405180910390f35b34801561012157600080fd5b5061012a6103c1565b6040516101379190610892565b60405180910390f35b34801561014c57600080fd5b5061016760048036036101629190810190610774565b61045f565b005b34801561017557600080fd5b50610190600480360361018b91908101906106f5565b6104a9565b60405161019d9190610877565b60405180910390f35b600081600054348115156101b657fe5b041415156101c357600080fd5b8273ffffffffffffffffffffffffffffffffffffffff168473ffffffffffffffffffffffffffffffffffffffff163373ffffffffffffffffffffffffffffffffffffffff167f59e22f56df324c900314efa670eda62f1e121a96dc4deb75000d17c7f1ae49af8560405161023791906108eb565b60405180910390a4600190509392505050565b60018054600181600116156101000203166002900480601f0160208091040260200160405190810160405280929190818152602001828054600181600116156101000203166002900480156102e05780601f106102b5576101008083540402835291602001916102e0565b820191906000526020600020905b8154815290600101906020018083116102c357829003601f168201915b505050505081565b60008273ffffffffffffffffffffffffffffffffffffffff163373ffffffffffffffffffffffffffffffffffffffff1614151561032457600080fd5b3373ffffffffffffffffffffffffffffffffffffffff166108fc600a600960005486020281151561035157fe5b049081150290604051600060405180830381858888f1935050505015801561037d573d6000803e3d6000fd5b50837fa9dce98d64e4d82c91cf869fba1a1ab6d450439e649003a807e1d977a4131617836040516103ae91906108eb565b60405180910390a2600190509392505050565b60028054600181600116156101000203166002900480601f0160208091040260200160405190810160405280929190818152602001828054600181600116156101000203166002900480156104575780601f1061042c57610100808354040283529160200191610457565b820191906000526020600020905b81548152906001019060200180831161043a57829003601f168201915b505050505081565b3373ffffffffffffffffffffffffffffffffffffffff166108fc829081150290604051600060405180830381858888f193505050501580156104a5573d6000803e3d6000fd5b5050565b600082600190805190602001906104c1929190610520565b5081600290805190602001906104d8929190610520565b50837f1e4d5b24640519f6b65fb9e0e6a545a1dd0ec6c0a099ac90c08ccc64d748fb106001600260405161050d9291906108b4565b60405180910390a2600190509392505050565b828054600181600116156101000203166002900490600052602060002090601f016020900481019282601f1061056157805160ff191683800117855561058f565b8280016001018555821561058f579182015b8281111561058e578251825591602001919060010190610573565b5b50905061059c91906105a0565b5090565b6105c291905b808211156105be5760008160009055506001016105a6565b5090565b90565b60006105d182356109b2565b905092915050565b60006105e582356109c4565b905092915050565b600082601f830112151561060057600080fd5b813561061361060e82610933565b610906565b9150808252602083016020830185838301111561062f57600080fd5b61063a8382846109d8565b50505092915050565b600061064f82356109ce565b905092915050565b60008060006060848603121561066c57600080fd5b600061067a868287016105c5565b935050602061068b868287016105c5565b925050604061069c86828701610643565b9150509250925092565b6000806000606084860312156106bb57600080fd5b60006106c9868287016105d9565b93505060206106da868287016105c5565b92505060406106eb86828701610643565b9150509250925092565b60008060006060848603121561070a57600080fd5b6000610718868287016105d9565b935050602084013567ffffffffffffffff81111561073557600080fd5b610741868287016105ed565b925050604084013567ffffffffffffffff81111561075e57600080fd5b61076a868287016105ed565b9150509250925092565b60006020828403121561078657600080fd5b600061079484828501610643565b91505092915050565b6107a68161097c565b82525050565b60006107b782610971565b8084526107cb8160208601602086016109e7565b6107d481610a1a565b602085010191505092915050565b6000815460018116600081146107ff576001811461081f57610860565b607f600283041680865260ff198316602087015260408601935050610860565b600282048086526020860195506108358561095f565b60005b8281101561085757815481890152600182019150602081019050610838565b80880195505050505b505092915050565b610871816109a8565b82525050565b600060208201905061088c600083018461079d565b92915050565b600060208201905081810360008301526108ac81846107ac565b905092915050565b600060408201905081810360008301526108ce81856107e2565b905081810360208301526108e281846107e2565b90509392505050565b60006020820190506109006000830184610868565b92915050565b6000604051905081810181811067ffffffffffffffff8211171561092957600080fd5b8060405250919050565b600067ffffffffffffffff82111561094a57600080fd5b601f19601f8301169050602081019050919050565b60008160005260206000209050919050565b600081519050919050565b60008115159050919050565b600073ffffffffffffffffffffffffffffffffffffffff82169050919050565b6000819050919050565b60006109bd82610988565b9050919050565b6000819050919050565b6000819050919050565b82818337600083830152505050565b60005b83811015610a055780820151818401526020810190506109ea565b83811115610a14576000848401525b50505050565b6000601f19601f830116905091905056fea265627a7a723058205ce6ec372cba1ae361fa29b5a9a75db7633044962b7dcab36003a20171680eab6c6578706572696d656e74616cf50037",
  "source": "pragma solidity ^0.5.0;\npragma experimental ABIEncoderV2;\n\ncontract SafeMov {\n\t\n\t//INITIAL VALUES\n\t//RegisterInitialTrip\n\tuint WEI_TO_ETH = 10 ** 18;\n\t\n\tevent initT(address indexed _idPassenger, address indexed _idDriver, address indexed _idVehicle, uint cost);\n\t\n\t//RegisterAPs\n\tstring public ap;\n\tstring public timestamp;\n\tevent registerAP(bytes32 indexed _tripTransaction, string _ap, string _timestamp);\n\t\n\t//End Trip\n\tevent endT(bytes32 indexed _tripTransaction, uint _cost);\n\t\n\t\n\t//FUNCTIONS\n\t//Register initial Trip\n\tfunction initTrip(address idDriver, address idVehicle, uint cost) public payable returns (bool){\n\t\t//send eth to contract from passenger\n\t\trequire(uint(msg.value) / WEI_TO_ETH == cost);\t\t\n\t\temit initT(msg.sender, idDriver, idVehicle, cost);\n\t\treturn true;\n\t}\n\t\n\t//Register AP and timestamp\n\tfunction regisAPandTime(bytes32 tripTransaction, string memory passedAp, string memory passedTimestamp) public returns (bool){\n\t\tap=passedAp;\n\t\ttimestamp=passedTimestamp;\n\t\temit registerAP(tripTransaction,ap,timestamp);\n\t\treturn true;\n\t}\n\t\n\t//End Trip\n\tfunction endTrip(bytes32 tripTransaction,address driver, uint cost) public returns (bool){\n\t\trequire(msg.sender == driver);\n\t\t//Transfer payment to driver\n\t\tmsg.sender.transfer(cost * WEI_TO_ETH * 9 / 10);\n\t\temit endT(tripTransaction, cost);\n\t\treturn true;\n\t}\n\t\n\tfunction widthdraw(uint amount) external {\n\t\t//only validators can widthdraw\n\t\t//require(msg.sender == '0x0');\n\t\tmsg.sender.transfer(amount);\n\t}\t\t\n}\n",
  "sourcePath": "/home/rromeroor/Besu/besu-22.1.1/transport-app/contracts/SafeMov.sol",
  "compiler": {
    "name": "solc",
    "version": "0.5.0+commit.1d4f565a.Emscripten.clang"
  },
  "schemaVersion": "3.4.6",
  "updatedAt": "2022-04-21T01:06:59.015Z",
  "networkType": "ethereum",
  "devdoc": {
    "methods": {}
  },
  "userdoc": {
    "methods": {}
  }
}