{
  "contractName": "SafeMov",
  "abi": [
    {
      "constant": true,
      "inputs": [],
      "name": "ap",
      "outputs": [
        {
          "name": "",
          "type": "string"
        }
      ],
      "payable": false,
      "stateMutability": "view",
      "type": "function"
    },
    {
      "constant": true,
      "inputs": [],
      "name": "timestamp",
      "outputs": [
        {
          "name": "",
          "type": "string"
        }
      ],
      "payable": false,
      "stateMutability": "view",
      "type": "function"
    },
    {
      "anonymous": false,
      "inputs": [
        {
          "indexed": true,
          "name": "_idPassenger",
          "type": "address"
        },
        {
          "indexed": true,
          "name": "_idDriver",
          "type": "address"
        },
        {
          "indexed": true,
          "name": "_idVehicle",
          "type": "address"
        },
        {
          "indexed": false,
          "name": "_cost",
          "type": "uint256"
        },
        {
          "indexed": false,
          "name": "_timestamp",
          "type": "string"
        }
      ],
      "name": "initT",
      "type": "event"
    },
    {
      "anonymous": false,
      "inputs": [
        {
          "indexed": true,
          "name": "_tripTransaction",
          "type": "bytes32"
        },
        {
          "indexed": false,
          "name": "_ap",
          "type": "string"
        },
        {
          "indexed": false,
          "name": "_timestamp",
          "type": "string"
        }
      ],
      "name": "registerAP",
      "type": "event"
    },
    {
      "anonymous": false,
      "inputs": [
        {
          "indexed": true,
          "name": "_tripTransaction",
          "type": "bytes32"
        },
        {
          "indexed": false,
          "name": "_cost",
          "type": "uint256"
        }
      ],
      "name": "endT",
      "type": "event"
    },
    {
      "constant": false,
      "inputs": [
        {
          "name": "idDriver",
          "type": "address"
        },
        {
          "name": "idVehicle",
          "type": "address"
        },
        {
          "name": "cost",
          "type": "uint256"
        },
        {
          "name": "passedTimestamp",
          "type": "string"
        }
      ],
      "name": "initTrip",
      "outputs": [
        {
          "name": "",
          "type": "bool"
        }
      ],
      "payable": true,
      "stateMutability": "payable",
      "type": "function"
    },
    {
      "constant": false,
      "inputs": [
        {
          "name": "tripTransaction",
          "type": "bytes32"
        },
        {
          "name": "passedAp",
          "type": "string"
        },
        {
          "name": "passedTimestamp",
          "type": "string"
        }
      ],
      "name": "regisAPandTime",
      "outputs": [
        {
          "name": "",
          "type": "bool"
        }
      ],
      "payable": false,
      "stateMutability": "nonpayable",
      "type": "function"
    },
    {
      "constant": false,
      "inputs": [
        {
          "name": "tripTransaction",
          "type": "bytes32"
        },
        {
          "name": "driver",
          "type": "address"
        },
        {
          "name": "cost",
          "type": "uint256"
        }
      ],
      "name": "endTrip",
      "outputs": [
        {
          "name": "",
          "type": "bool"
        }
      ],
      "payable": false,
      "stateMutability": "nonpayable",
      "type": "function"
    },
    {
      "constant": false,
      "inputs": [
        {
          "name": "amount",
          "type": "uint256"
        }
      ],
      "name": "widthdraw",
      "outputs": [],
      "payable": false,
      "stateMutability": "nonpayable",
      "type": "function"
    }
  ],
  "bytecode": "0x6080604052670de0b6b3a764000060005534801561001c57600080fd5b50610adc8061002c6000396000f3fe608060405260043610610078576000357c0100000000000000000000000000000000000000000000000000000000900463ffffffff1680633c4f743c1461007d57806345ebb834146100a8578063adfbae4d146100d8578063b80777ea14610115578063e0da260c14610140578063e83a54e514610169575b600080fd5b34801561008957600080fd5b506100926101a6565b60405161009f91906108d9565b60405180910390f35b6100c260048036036100bd9190810190610672565b610244565b6040516100cf91906108be565b60405180910390f35b3480156100e457600080fd5b506100ff60048036036100fa91908101906106ed565b610303565b60405161010c91906108be565b60405180910390f35b34801561012157600080fd5b5061012a6103dc565b60405161013791906108d9565b60405180910390f35b34801561014c57600080fd5b50610167600480360361016291908101906107bb565b61047a565b005b34801561017557600080fd5b50610190600480360361018b919081019061073c565b6104c4565b60405161019d91906108be565b60405180910390f35b60018054600181600116156101000203166002900480601f01602080910402602001604051908101604052809291908181526020018280546001816001161561010002031660029004801561023c5780601f106102115761010080835404028352916020019161023c565b820191906000526020600020905b81548152906001019060200180831161021f57829003601f168201915b505050505081565b6000826000543481151561025457fe5b0414151561026157600080fd5b816001908051906020019061027792919061053b565b508373ffffffffffffffffffffffffffffffffffffffff168573ffffffffffffffffffffffffffffffffffffffff163373ffffffffffffffffffffffffffffffffffffffff167fc9da9aa5d5a69360436d194b05f7bd308f547017ca6a5756a5d0557679a6f4268660016040516102ef92919061094d565b60405180910390a460019050949350505050565b60008273ffffffffffffffffffffffffffffffffffffffff163373ffffffffffffffffffffffffffffffffffffffff1614151561033f57600080fd5b3373ffffffffffffffffffffffffffffffffffffffff166108fc600a600960005486020281151561036c57fe5b049081150290604051600060405180830381858888f19350505050158015610398573d6000803e3d6000fd5b50837fa9dce98d64e4d82c91cf869fba1a1ab6d450439e649003a807e1d977a4131617836040516103c99190610932565b60405180910390a2600190509392505050565b60028054600181600116156101000203166002900480601f0160208091040260200160405190810160405280929190818152602001828054600181600116156101000203166002900480156104725780601f1061044757610100808354040283529160200191610472565b820191906000526020600020905b81548152906001019060200180831161045557829003601f168201915b505050505081565b3373ffffffffffffffffffffffffffffffffffffffff166108fc829081150290604051600060405180830381858888f193505050501580156104c0573d6000803e3d6000fd5b5050565b600082600190805190602001906104dc92919061053b565b5081600290805190602001906104f392919061053b565b50837f1e4d5b24640519f6b65fb9e0e6a545a1dd0ec6c0a099ac90c08ccc64d748fb10600160026040516105289291906108fb565b60405180910390a2600190509392505050565b828054600181600116156101000203166002900490600052602060002090601f016020900481019282601f1061057c57805160ff19168380011785556105aa565b828001600101855582156105aa579182015b828111156105a957825182559160200191906001019061058e565b5b5090506105b791906105bb565b5090565b6105dd91905b808211156105d95760008160009055506001016105c1565b5090565b90565b60006105ec8235610a29565b905092915050565b60006106008235610a3b565b905092915050565b600082601f830112151561061b57600080fd5b813561062e610629826109aa565b61097d565b9150808252602083016020830185838301111561064a57600080fd5b610655838284610a4f565b50505092915050565b600061066a8235610a45565b905092915050565b6000806000806080858703121561068857600080fd5b6000610696878288016105e0565b94505060206106a7878288016105e0565b93505060406106b88782880161065e565b925050606085013567ffffffffffffffff8111156106d557600080fd5b6106e187828801610608565b91505092959194509250565b60008060006060848603121561070257600080fd5b6000610710868287016105f4565b9350506020610721868287016105e0565b92505060406107328682870161065e565b9150509250925092565b60008060006060848603121561075157600080fd5b600061075f868287016105f4565b935050602084013567ffffffffffffffff81111561077c57600080fd5b61078886828701610608565b925050604084013567ffffffffffffffff8111156107a557600080fd5b6107b186828701610608565b9150509250925092565b6000602082840312156107cd57600080fd5b60006107db8482850161065e565b91505092915050565b6107ed816109f3565b82525050565b60006107fe826109e8565b808452610812816020860160208601610a5e565b61081b81610a91565b602085010191505092915050565b6000815460018116600081146108465760018114610866576108a7565b607f600283041680865260ff1983166020870152604086019350506108a7565b6002820480865260208601955061087c856109d6565b60005b8281101561089e5781548189015260018201915060208101905061087f565b80880195505050505b505092915050565b6108b881610a1f565b82525050565b60006020820190506108d360008301846107e4565b92915050565b600060208201905081810360008301526108f381846107f3565b905092915050565b600060408201905081810360008301526109158185610829565b905081810360208301526109298184610829565b90509392505050565b600060208201905061094760008301846108af565b92915050565b600060408201905061096260008301856108af565b81810360208301526109748184610829565b90509392505050565b6000604051905081810181811067ffffffffffffffff821117156109a057600080fd5b8060405250919050565b600067ffffffffffffffff8211156109c157600080fd5b601f19601f8301169050602081019050919050565b60008160005260206000209050919050565b600081519050919050565b60008115159050919050565b600073ffffffffffffffffffffffffffffffffffffffff82169050919050565b6000819050919050565b6000610a34826109ff565b9050919050565b6000819050919050565b6000819050919050565b82818337600083830152505050565b60005b83811015610a7c578082015181840152602081019050610a61565b83811115610a8b576000848401525b50505050565b6000601f19601f830116905091905056fea265627a7a72305820f60dffb91cd18068a7a85c6962062826bb829a97502261d8591c9fbfcd53f9b96c6578706572696d656e74616cf50037",
  "source": "pragma solidity ^0.5.0;\npragma experimental ABIEncoderV2;\n\ncontract SafeMov {\n\t\n\t//INITIAL VALUES\n\t//RegisterInitialTrip\n\tuint WEI_TO_ETH = 10 ** 18;\n\t\n\tevent initT(address indexed _idPassenger, address indexed _idDriver, address indexed _idVehicle, uint _cost, string _timestamp);\n\t\n\t//RegisterAPs\n\tstring public ap;\n\tstring public timestamp;\n\tevent registerAP(bytes32 indexed _tripTransaction, string _ap, string _timestamp);\n\t\n\t//End Trip\n\tevent endT(bytes32 indexed _tripTransaction, uint _cost);\n\t\n\t\n\t//FUNCTIONS\n\t//Register initial Trip\n\tfunction initTrip(address idDriver, address idVehicle, uint cost, string memory passedTimestamp) public payable returns (bool){\n\t\t//send eth to contract from passenger\n\t\trequire(uint(msg.value) / WEI_TO_ETH == cost);\n\t\tap=passedTimestamp;\t\t\n\t\temit initT(msg.sender, idDriver, idVehicle, cost,ap);\n\t\treturn true;\n\t}\n\t\n\t//Register AP and timestamp\n\tfunction regisAPandTime(bytes32 tripTransaction, string memory passedAp, string memory passedTimestamp) public returns (bool){\n\t\tap=passedAp;\n\t\ttimestamp=passedTimestamp;\n\t\temit registerAP(tripTransaction,ap,timestamp);\n\t\treturn true;\n\t}\n\t\n\t//End Trip\n\tfunction endTrip(bytes32 tripTransaction,address driver, uint cost) public returns (bool){\n\t\trequire(msg.sender == driver);\n\t\t//Transfer payment to driver\n\t\tmsg.sender.transfer(cost * WEI_TO_ETH * 9 / 10);\n\t\temit endT(tripTransaction, cost);\n\t\treturn true;\n\t}\n\t\n\tfunction widthdraw(uint amount) external {\n\t\t//only validators can widthdraw\n\t\t//require(msg.sender == '0x0');\n\t\tmsg.sender.transfer(amount);\n\t}\t\t\n}\n",
  "sourcePath": "/home/rromeroor/Besu/besu-22.1.1/transport-app/contracts/SafeMov.sol",
  "compiler": {
    "name": "solc",
    "version": "0.5.0+commit.1d4f565a.Emscripten.clang"
  },
  "schemaVersion": "3.4.6",
  "updatedAt": "2022-04-21T18:41:12.846Z",
  "networkType": "ethereum",
  "devdoc": {
    "methods": {}
  },
  "userdoc": {
    "methods": {}
  }
}