{
  "contractName": "Trips",
  "abi": [
    {
      "constant": true,
      "inputs": [],
      "name": "ap",
      "outputs": [
        {
          "name": "",
          "type": "string"
        }
      ],
      "payable": false,
      "stateMutability": "view",
      "type": "function"
    },
    {
      "constant": true,
      "inputs": [],
      "name": "timestamp",
      "outputs": [
        {
          "name": "",
          "type": "string"
        }
      ],
      "payable": false,
      "stateMutability": "view",
      "type": "function"
    },
    {
      "anonymous": false,
      "inputs": [
        {
          "indexed": true,
          "name": "_idPassenger",
          "type": "address"
        },
        {
          "indexed": true,
          "name": "_idDriver",
          "type": "address"
        },
        {
          "indexed": true,
          "name": "_idVehicle",
          "type": "address"
        },
        {
          "indexed": false,
          "name": "_idRegister",
          "type": "uint256"
        },
        {
          "indexed": false,
          "name": "cost",
          "type": "uint256"
        }
      ],
      "name": "initT",
      "type": "event"
    },
    {
      "anonymous": false,
      "inputs": [
        {
          "indexed": true,
          "name": "_tripTransaction",
          "type": "bytes32"
        },
        {
          "indexed": false,
          "name": "_ap",
          "type": "string"
        },
        {
          "indexed": false,
          "name": "_timestamp",
          "type": "string"
        },
        {
          "indexed": false,
          "name": "_idRegister",
          "type": "uint256"
        }
      ],
      "name": "registerAP",
      "type": "event"
    },
    {
      "anonymous": false,
      "inputs": [
        {
          "indexed": true,
          "name": "_tripTransaction",
          "type": "bytes32"
        },
        {
          "indexed": false,
          "name": "_cost",
          "type": "uint256"
        },
        {
          "indexed": false,
          "name": "_indexTrip",
          "type": "uint256"
        }
      ],
      "name": "endT",
      "type": "event"
    },
    {
      "constant": false,
      "inputs": [
        {
          "name": "idDriver",
          "type": "address"
        },
        {
          "name": "idVehicle",
          "type": "address"
        },
        {
          "name": "cost",
          "type": "uint256"
        }
      ],
      "name": "initTrip",
      "outputs": [
        {
          "name": "",
          "type": "uint256"
        }
      ],
      "payable": true,
      "stateMutability": "payable",
      "type": "function"
    },
    {
      "constant": false,
      "inputs": [
        {
          "name": "tripTransaction",
          "type": "bytes32"
        },
        {
          "name": "passedAp",
          "type": "string"
        },
        {
          "name": "passedTimestamp",
          "type": "string"
        },
        {
          "name": "indexTrip",
          "type": "uint256"
        }
      ],
      "name": "regisAPandTime",
      "outputs": [
        {
          "name": "",
          "type": "uint256"
        }
      ],
      "payable": false,
      "stateMutability": "nonpayable",
      "type": "function"
    },
    {
      "constant": false,
      "inputs": [
        {
          "name": "tripTransaction",
          "type": "bytes32"
        },
        {
          "name": "indexTrip",
          "type": "uint256"
        }
      ],
      "name": "endTrip",
      "outputs": [
        {
          "name": "",
          "type": "uint256"
        }
      ],
      "payable": false,
      "stateMutability": "nonpayable",
      "type": "function"
    },
    {
      "constant": false,
      "inputs": [
        {
          "name": "amount",
          "type": "uint256"
        }
      ],
      "name": "widthdraw",
      "outputs": [],
      "payable": false,
      "stateMutability": "nonpayable",
      "type": "function"
    },
    {
      "constant": true,
      "inputs": [
        {
          "name": "index",
          "type": "uint256"
        }
      ],
      "name": "getInitialTripData",
      "outputs": [
        {
          "components": [
            {
              "name": "idPassenger",
              "type": "address"
            },
            {
              "name": "idDriver",
              "type": "address"
            },
            {
              "name": "idVehicle",
              "type": "address"
            },
            {
              "name": "cost",
              "type": "uint256"
            }
          ],
          "name": "",
          "type": "tuple"
        }
      ],
      "payable": false,
      "stateMutability": "view",
      "type": "function"
    },
    {
      "constant": true,
      "inputs": [
        {
          "name": "transaction",
          "type": "bytes32"
        }
      ],
      "name": "getAPsInfo",
      "outputs": [
        {
          "components": [
            {
              "name": "indexTrip",
              "type": "uint256"
            },
            {
              "name": "ap",
              "type": "string"
            },
            {
              "name": "timestamp",
              "type": "string"
            }
          ],
          "name": "",
          "type": "tuple[]"
        }
      ],
      "payable": false,
      "stateMutability": "view",
      "type": "function"
    },
    {
      "constant": true,
      "inputs": [
        {
          "name": "transaction",
          "type": "bytes32"
        }
      ],
      "name": "getFinalTripData",
      "outputs": [
        {
          "components": [
            {
              "name": "cost",
              "type": "uint256"
            },
            {
              "name": "indexTrip",
              "type": "uint256"
            }
          ],
          "name": "",
          "type": "tuple"
        }
      ],
      "payable": false,
      "stateMutability": "view",
      "type": "function"
    }
  ],
  "bytecode": "0x6080604052670de0b6b3a764000060005534801561001c57600080fd5b506115da8061002c6000396000f3fe608060405260043610610099576000357c0100000000000000000000000000000000000000000000000000000000900463ffffffff1680630fff05911461009e57806313efebcd146100db5780631bb898f51461010b5780632cb5c79d146101485780633c4f743c14610185578063b80777ea146101b0578063cfb315dc146101db578063dd95279a14610218578063e0da260c14610255575b600080fd5b3480156100aa57600080fd5b506100c560048036036100c09190810190611009565b61027e565b6040516100d291906113d6565b60405180910390f35b6100f560048036036100f09190810190610fba565b6102bf565b604051610102919061140c565b60405180910390f35b34801561011757600080fd5b50610132600480360361012d9190810190611009565b6104e2565b60405161013f919061134d565b60405180910390f35b34801561015457600080fd5b5061016f600480360361016a91908101906110c5565b6106a3565b60405161017c919061140c565b60405180910390f35b34801561019157600080fd5b5061019a610827565b6040516101a7919061136f565b60405180910390f35b3480156101bc57600080fd5b506101c56108c5565b6040516101d2919061136f565b60405180910390f35b3480156101e757600080fd5b5061020260048036036101fd9190810190611101565b610963565b60405161020f91906113f1565b60405180910390f35b34801561022457600080fd5b5061023f600480360361023a9190810190611032565b610ac7565b60405161024c919061140c565b60405180910390f35b34801561026157600080fd5b5061027c60048036036102779190810190611101565b610d34565b005b610286610d7e565b60056000838152602001908152602001600020604080519081016040529081600082015481526020016001820154815250509050919050565b600081600054348115156102cf57fe5b041415156102dc57600080fd5b6000600180549050905060016080604051908101604052803373ffffffffffffffffffffffffffffffffffffffff1681526020018773ffffffffffffffffffffffffffffffffffffffff1681526020018673ffffffffffffffffffffffffffffffffffffffff168152602001858152509080600181540180825580915050906001820390600052602060002090600402016000909192909190915060008201518160000160006101000a81548173ffffffffffffffffffffffffffffffffffffffff021916908373ffffffffffffffffffffffffffffffffffffffff16021790555060208201518160010160006101000a81548173ffffffffffffffffffffffffffffffffffffffff021916908373ffffffffffffffffffffffffffffffffffffffff16021790555060408201518160020160006101000a81548173ffffffffffffffffffffffffffffffffffffffff021916908373ffffffffffffffffffffffffffffffffffffffff160217905550606082015181600301555050508373ffffffffffffffffffffffffffffffffffffffff168573ffffffffffffffffffffffffffffffffffffffff163373ffffffffffffffffffffffffffffffffffffffff167fe2ee69d2902d197c8634f8d2ca4201d8f85e1b4e383a7e8fccdd60b74285432684876040516104cf929190611427565b60405180910390a4809150509392505050565b606060026000838152602001908152602001600020805480602002602001604051908101604052809291908181526020016000905b8282101561069857838290600052602060002090600302016060604051908101604052908160008201548152602001600182018054600181600116156101000203166002900480601f0160208091040260200160405190810160405280929190818152602001828054600181600116156101000203166002900480156105de5780601f106105b3576101008083540402835291602001916105de565b820191906000526020600020905b8154815290600101906020018083116105c157829003601f168201915b50505050508152602001600282018054600181600116156101000203166002900480601f0160208091040260200160405190810160405280929190818152602001828054600181600116156101000203166002900480156106805780601f1061065557610100808354040283529160200191610680565b820191906000526020600020905b81548152906001019060200180831161066357829003601f168201915b50505050508152505081526020019060010190610517565b505050509050919050565b6000806001838154811015156106b557fe5b906000526020600020906004020160030154905060006001848154811015156106da57fe5b906000526020600020906004020160010160009054906101000a900473ffffffffffffffffffffffffffffffffffffffff1690508073ffffffffffffffffffffffffffffffffffffffff163373ffffffffffffffffffffffffffffffffffffffff1614151561074857600080fd5b3373ffffffffffffffffffffffffffffffffffffffff166108fc600a600960005486020281151561077557fe5b049081150290604051600060405180830381858888f193505050501580156107a1573d6000803e3d6000fd5b50604080519081016040528083815260200185815250600560008781526020019081526020016000206000820151816000015560208201518160010155905050847f70cb18466ae64b0cfda76478cbd835228f6f7b9d37f57475b0553b53c28002858386604051610813929190611427565b60405180910390a260009250505092915050565b60038054600181600116156101000203166002900480601f0160208091040260200160405190810160405280929190818152602001828054600181600116156101000203166002900480156108bd5780601f10610892576101008083540402835291602001916108bd565b820191906000526020600020905b8154815290600101906020018083116108a057829003601f168201915b505050505081565b60048054600181600116156101000203166002900480601f01602080910402602001604051908101604052809291908181526020018280546001816001161561010002031660029004801561095b5780601f106109305761010080835404028352916020019161095b565b820191906000526020600020905b81548152906001019060200180831161093e57829003601f168201915b505050505081565b61096b610d98565b60008210158015610980575060018054905082105b151561098b57600080fd5b60018281548110151561099a57fe5b9060005260206000209060040201608060405190810160405290816000820160009054906101000a900473ffffffffffffffffffffffffffffffffffffffff1673ffffffffffffffffffffffffffffffffffffffff1673ffffffffffffffffffffffffffffffffffffffff1681526020016001820160009054906101000a900473ffffffffffffffffffffffffffffffffffffffff1673ffffffffffffffffffffffffffffffffffffffff1673ffffffffffffffffffffffffffffffffffffffff1681526020016002820160009054906101000a900473ffffffffffffffffffffffffffffffffffffffff1673ffffffffffffffffffffffffffffffffffffffff1673ffffffffffffffffffffffffffffffffffffffff1681526020016003820154815250509050919050565b60008360039080519060200190610adf929190610e03565b508260049080519060200190610af6929190610e03565b506002600086815260200190815260200160002060606040519081016040528084815260200160038054600181600116156101000203166002900480601f016020809104026020016040519081016040528092919081815260200182805460018160011615610100020316600290048015610bb25780601f10610b8757610100808354040283529160200191610bb2565b820191906000526020600020905b815481529060010190602001808311610b9557829003601f168201915b5050505050815260200160048054600181600116156101000203166002900480601f016020809104026020016040519081016040528092919081815260200182805460018160011615610100020316600290048015610c525780601f10610c2757610100808354040283529160200191610c52565b820191906000526020600020905b815481529060010190602001808311610c3557829003601f168201915b505050505081525090806001815401808255809150509060018203906000526020600020906003020160009091929091909150600082015181600001556020820151816001019080519060200190610cab929190610e83565b506040820151816002019080519060200190610cc8929190610e83565b50505050600060016002600088815260200190815260200160002080549050039050857fb716fa48eec8be55747b1f400596f311e0c2578300847593372e0fdabaf94fdf6003600484604051610d2093929190611391565b60405180910390a280915050949350505050565b3373ffffffffffffffffffffffffffffffffffffffff166108fc829081150290604051600060405180830381858888f19350505050158015610d7a573d6000803e3d6000fd5b5050565b604080519081016040528060008152602001600081525090565b608060405190810160405280600073ffffffffffffffffffffffffffffffffffffffff168152602001600073ffffffffffffffffffffffffffffffffffffffff168152602001600073ffffffffffffffffffffffffffffffffffffffff168152602001600081525090565b828054600181600116156101000203166002900490600052602060002090601f016020900481019282601f10610e4457805160ff1916838001178555610e72565b82800160010185558215610e72579182015b82811115610e71578251825591602001919060010190610e56565b5b509050610e7f9190610f03565b5090565b828054600181600116156101000203166002900490600052602060002090601f016020900481019282601f10610ec457805160ff1916838001178555610ef2565b82800160010185558215610ef2579182015b82811115610ef1578251825591602001919060010190610ed6565b5b509050610eff9190610f03565b5090565b610f2591905b80821115610f21576000816000905550600101610f09565b5090565b90565b6000610f348235611527565b905092915050565b6000610f488235611539565b905092915050565b600082601f8301121515610f6357600080fd5b8135610f76610f718261147d565b611450565b91508082526020830160208301858383011115610f9257600080fd5b610f9d83828461154d565b50505092915050565b6000610fb28235611543565b905092915050565b600080600060608486031215610fcf57600080fd5b6000610fdd86828701610f28565b9350506020610fee86828701610f28565b9250506040610fff86828701610fa6565b9150509250925092565b60006020828403121561101b57600080fd5b600061102984828501610f3c565b91505092915050565b6000806000806080858703121561104857600080fd5b600061105687828801610f3c565b945050602085013567ffffffffffffffff81111561107357600080fd5b61107f87828801610f50565b935050604085013567ffffffffffffffff81111561109c57600080fd5b6110a887828801610f50565b92505060606110b987828801610fa6565b91505092959194509250565b600080604083850312156110d857600080fd5b60006110e685828601610f3c565b92505060206110f785828601610fa6565b9150509250929050565b60006020828403121561111357600080fd5b600061112184828501610fa6565b91505092915050565b611133816114eb565b82525050565b6000611144826114c8565b8084526020840193508360208202850161115d856114a9565b60005b84811015611196578383038852611178838351611263565b9250611183826114de565b9150602088019750600181019050611160565b508196508694505050505092915050565b60006111b2826114d3565b8084526111c681602086016020860161155c565b6111cf8161158f565b602085010191505092915050565b6000815460018116600081146111fa576001811461121a5761125b565b607f600283041680865260ff19831660208701526040860193505061125b565b60028204808652602086019550611230856114b6565b60005b8281101561125257815481890152600182019150602081019050611233565b80880195505050505b505092915050565b600060608301600083015161127b600086018261133e565b506020830151848203602086015261129382826111a7565b915050604083015184820360408601526112ad82826111a7565b9150508091505092915050565b6040820160008201516112d0600085018261133e565b5060208201516112e3602085018261133e565b50505050565b6080820160008201516112ff600085018261112a565b506020820151611312602085018261112a565b506040820151611325604085018261112a565b506060820151611338606085018261133e565b50505050565b6113478161151d565b82525050565b600060208201905081810360008301526113678184611139565b905092915050565b6000602082019050818103600083015261138981846111a7565b905092915050565b600060608201905081810360008301526113ab81866111dd565b905081810360208301526113bf81856111dd565b90506113ce604083018461133e565b949350505050565b60006040820190506113eb60008301846112ba565b92915050565b600060808201905061140660008301846112e9565b92915050565b6000602082019050611421600083018461133e565b92915050565b600060408201905061143c600083018561133e565b611449602083018461133e565b9392505050565b6000604051905081810181811067ffffffffffffffff8211171561147357600080fd5b8060405250919050565b600067ffffffffffffffff82111561149457600080fd5b601f19601f8301169050602081019050919050565b6000602082019050919050565b60008160005260206000209050919050565b600081519050919050565b600081519050919050565b6000602082019050919050565b60006114f6826114fd565b9050919050565b600073ffffffffffffffffffffffffffffffffffffffff82169050919050565b6000819050919050565b6000611532826114fd565b9050919050565b6000819050919050565b6000819050919050565b82818337600083830152505050565b60005b8381101561157a57808201518184015260208101905061155f565b83811115611589576000848401525b50505050565b6000601f19601f830116905091905056fea265627a7a72305820a7995e478b80dd1bfb48294332f12eb3d46138bd84c7404b07f88b1f03ef88346c6578706572696d656e74616cf50037",
  "source": "pragma solidity ^0.5.0;\npragma experimental ABIEncoderV2;\n\ncontract Trips {\n\t\n\t//INITIAL VALUES\n\t//RegisterInitialTrip\n\tuint WEI_TO_ETH = 10 ** 18;\n\t\n\tstruct Trip{\n\t\taddress idPassenger;\n\t\taddress idDriver;\n\t\taddress idVehicle;\n\t\tuint cost;\n\t}\n\tTrip[] initialRegisterTrip;\n\tevent initT(address indexed _idPassenger, address indexed _idDriver, address indexed _idVehicle, uint _idRegister, uint cost);\n\t\n\t//RegisterAPs\n\tstruct APTS{\n\t\tuint indexTrip;\n\t\tstring ap;\n\t\tstring timestamp;\n\t}\n\tmapping(bytes32 => APTS[]) apts;\n\tstring public ap;\n\tstring public timestamp;\n\tevent registerAP(bytes32 indexed _tripTransaction, string _ap, string _timestamp, uint _idRegister);\n\t\n\t//End Trip\n\tstruct TripReceipt{\n\t\tuint256 cost;\n\t\tuint indexTrip;\n\t}\n\tmapping(bytes32 => TripReceipt) receipts;\n\tevent endT(bytes32 indexed _tripTransaction, uint _cost, uint _indexTrip);\n\t\n\t\n\t//FUNCTIONS\n\t//Register initial Trip\n\tfunction initTrip(address idDriver, address idVehicle, uint cost) public payable returns (uint){\n\t\t//send eth to contract\n\t\trequire(uint(msg.value) / WEI_TO_ETH == cost);\n\t\t\n\t\tuint idRegister = initialRegisterTrip.length;\n\t\tinitialRegisterTrip.push(Trip(msg.sender,idDriver,idVehicle,cost));\n\t\t\n\t\temit initT(msg.sender, idDriver, idVehicle,idRegister, cost);\n\t\treturn idRegister;\n\t}\n\t\n\t//Register AP and timestamp\n\tfunction regisAPandTime(bytes32 tripTransaction, string memory passedAp, string memory passedTimestamp,uint indexTrip) public returns (uint){\n\t\tap=passedAp;\n\t\ttimestamp=passedTimestamp;\n\t\t\n\t\tapts[tripTransaction].push(APTS(indexTrip, ap, timestamp));\n\t\tuint idRegister = apts[tripTransaction].length-1;\n\t\temit registerAP(tripTransaction,ap,timestamp,idRegister);\n\t\treturn idRegister;\n\t}\n\t\n\t//End Trip\n\tfunction endTrip(bytes32 tripTransaction, uint indexTrip) public returns (uint){\n\t\tuint cost= initialRegisterTrip[indexTrip].cost;\n\t\taddress driver = initialRegisterTrip[indexTrip].idDriver;\n\t\trequire(msg.sender == driver);\n\t\t\n\t\t//Transfer payment to driver\n\t\tmsg.sender.transfer(cost * WEI_TO_ETH * 9 / 10);\n\t\t\n\t\treceipts[tripTransaction]=TripReceipt(cost,indexTrip);\n\t\temit endT(tripTransaction, cost, indexTrip);\n\t\treturn 0;\n\t}\n\t\n\tfunction widthdraw(uint amount) external {\n\t\t//only validators can widthdraw\n\t\t//require(msg.sender == '0x0');\n\t\tmsg.sender.transfer(amount);\n\t}\t\n\t\n\t//LOOK UP FUNCTIONS\n\tfunction getInitialTripData(uint index) public view returns (Trip memory){\n\t\trequire(index>=0 && index<initialRegisterTrip.length);\n\t\treturn initialRegisterTrip[index];\n\t}\n\t\n\tfunction getAPsInfo(bytes32 transaction) public view returns (APTS[] memory){\n\t\treturn apts[transaction];\n\t}\n\t\n\tfunction getFinalTripData(bytes32 transaction) public view returns (TripReceipt memory){\n\t\treturn receipts[transaction];\n\t}\n\t\n\t\n}\n",
  "sourcePath": "/home/rromeroor/Besu/besu-22.1.1/transport-app/contracts/Trips.sol",
  "compiler": {
    "name": "solc",
    "version": "0.5.0+commit.1d4f565a.Emscripten.clang"
  },
  "schemaVersion": "3.4.6",
  "updatedAt": "2022-05-11T17:22:35.591Z",
  "networkType": "ethereum",
  "devdoc": {
    "methods": {}
  },
  "userdoc": {
    "methods": {}
  }
}