{
  "contractName": "Trips",
  "abi": [
    {
      "constant": true,
      "inputs": [],
      "name": "ap",
      "outputs": [
        {
          "name": "",
          "type": "string"
        }
      ],
      "payable": false,
      "stateMutability": "view",
      "type": "function"
    },
    {
      "constant": true,
      "inputs": [],
      "name": "timestamp",
      "outputs": [
        {
          "name": "",
          "type": "string"
        }
      ],
      "payable": false,
      "stateMutability": "view",
      "type": "function"
    },
    {
      "anonymous": false,
      "inputs": [
        {
          "indexed": true,
          "name": "_idPassenger",
          "type": "address"
        },
        {
          "indexed": true,
          "name": "_idDriver",
          "type": "address"
        },
        {
          "indexed": true,
          "name": "_idVehicle",
          "type": "address"
        },
        {
          "indexed": false,
          "name": "_idRegister",
          "type": "uint256"
        },
        {
          "indexed": false,
          "name": "cost",
          "type": "uint256"
        }
      ],
      "name": "initT",
      "type": "event"
    },
    {
      "anonymous": false,
      "inputs": [
        {
          "indexed": true,
          "name": "_tripTransaction",
          "type": "bytes32"
        },
        {
          "indexed": false,
          "name": "_ap",
          "type": "string"
        },
        {
          "indexed": false,
          "name": "_timestamp",
          "type": "string"
        },
        {
          "indexed": false,
          "name": "_idRegister",
          "type": "uint256"
        }
      ],
      "name": "registerAP",
      "type": "event"
    },
    {
      "anonymous": false,
      "inputs": [
        {
          "indexed": true,
          "name": "_tripTransaction",
          "type": "bytes32"
        },
        {
          "indexed": false,
          "name": "_cost",
          "type": "uint256"
        },
        {
          "indexed": false,
          "name": "_indexTrip",
          "type": "uint256"
        }
      ],
      "name": "endT",
      "type": "event"
    },
    {
      "constant": false,
      "inputs": [
        {
          "name": "idDriver",
          "type": "address"
        },
        {
          "name": "idVehicle",
          "type": "address"
        },
        {
          "name": "cost",
          "type": "uint256"
        }
      ],
      "name": "initTrip",
      "outputs": [
        {
          "name": "",
          "type": "uint256"
        }
      ],
      "payable": true,
      "stateMutability": "payable",
      "type": "function"
    },
    {
      "constant": false,
      "inputs": [
        {
          "name": "tripTransaction",
          "type": "bytes32"
        },
        {
          "name": "passedAp",
          "type": "string"
        },
        {
          "name": "passedTimestamp",
          "type": "string"
        },
        {
          "name": "indexTrip",
          "type": "uint256"
        }
      ],
      "name": "regisAPandTime",
      "outputs": [
        {
          "name": "",
          "type": "uint256"
        }
      ],
      "payable": false,
      "stateMutability": "nonpayable",
      "type": "function"
    },
    {
      "constant": false,
      "inputs": [
        {
          "name": "tripTransaction",
          "type": "bytes32"
        },
        {
          "name": "indexTrip",
          "type": "uint256"
        }
      ],
      "name": "endTrip",
      "outputs": [
        {
          "name": "",
          "type": "uint256"
        }
      ],
      "payable": false,
      "stateMutability": "nonpayable",
      "type": "function"
    },
    {
      "constant": false,
      "inputs": [
        {
          "name": "amount",
          "type": "uint256"
        }
      ],
      "name": "widthdraw",
      "outputs": [],
      "payable": false,
      "stateMutability": "nonpayable",
      "type": "function"
    },
    {
      "constant": true,
      "inputs": [
        {
          "name": "index",
          "type": "uint256"
        }
      ],
      "name": "getInitialTripData",
      "outputs": [
        {
          "components": [
            {
              "name": "idPassenger",
              "type": "address"
            },
            {
              "name": "idDriver",
              "type": "address"
            },
            {
              "name": "idVehicle",
              "type": "address"
            },
            {
              "name": "cost",
              "type": "uint256"
            }
          ],
          "name": "",
          "type": "tuple"
        }
      ],
      "payable": false,
      "stateMutability": "view",
      "type": "function"
    },
    {
      "constant": true,
      "inputs": [
        {
          "name": "transaction",
          "type": "bytes32"
        }
      ],
      "name": "getAPsInfo",
      "outputs": [
        {
          "components": [
            {
              "name": "indexTrip",
              "type": "uint256"
            },
            {
              "name": "ap",
              "type": "string"
            },
            {
              "name": "timestamp",
              "type": "string"
            }
          ],
          "name": "",
          "type": "tuple[]"
        }
      ],
      "payable": false,
      "stateMutability": "view",
      "type": "function"
    },
    {
      "constant": true,
      "inputs": [
        {
          "name": "transaction",
          "type": "bytes32"
        }
      ],
      "name": "getFinalTripData",
      "outputs": [
        {
          "components": [
            {
              "name": "cost",
              "type": "uint256"
            },
            {
              "name": "indexTrip",
              "type": "uint256"
            }
          ],
          "name": "",
          "type": "tuple"
        }
      ],
      "payable": false,
      "stateMutability": "view",
      "type": "function"
    }
  ],
  "bytecode": "0x608060405234801561001057600080fd5b506115e3806100206000396000f3fe608060405260043610610099576000357c0100000000000000000000000000000000000000000000000000000000900463ffffffff1680630fff05911461009e57806313efebcd146100db5780631bb898f51461010b5780632cb5c79d146101485780633c4f743c14610185578063b80777ea146101b0578063cfb315dc146101db578063dd95279a14610218578063e0da260c14610255575b600080fd5b3480156100aa57600080fd5b506100c560048036036100c09190810190611012565b61027e565b6040516100d291906113df565b60405180910390f35b6100f560048036036100f09190810190610fc3565b6102bf565b6040516101029190611415565b60405180910390f35b34801561011757600080fd5b50610132600480360361012d9190810190611012565b6104e7565b60405161013f9190611356565b60405180910390f35b34801561015457600080fd5b5061016f600480360361016a91908101906110ce565b6106a8565b60405161017c9190611415565b60405180910390f35b34801561019157600080fd5b5061019a610831565b6040516101a79190611378565b60405180910390f35b3480156101bc57600080fd5b506101c56108cf565b6040516101d29190611378565b60405180910390f35b3480156101e757600080fd5b5061020260048036036101fd919081019061110a565b61096d565b60405161020f91906113fa565b60405180910390f35b34801561022457600080fd5b5061023f600480360361023a919081019061103b565b610ad1565b60405161024c9190611415565b60405180910390f35b34801561026157600080fd5b5061027c6004803603610277919081019061110a565b610d3d565b005b610286610d87565b60046000838152602001908152602001600020604080519081016040529081600082015481526020016001820154815250509050919050565b600081670de0b6b3a7640000348115156102d557fe5b041415156102e257600080fd5b60008080549050905060006080604051908101604052803373ffffffffffffffffffffffffffffffffffffffff1681526020018773ffffffffffffffffffffffffffffffffffffffff1681526020018673ffffffffffffffffffffffffffffffffffffffff168152602001858152509080600181540180825580915050906001820390600052602060002090600402016000909192909190915060008201518160000160006101000a81548173ffffffffffffffffffffffffffffffffffffffff021916908373ffffffffffffffffffffffffffffffffffffffff16021790555060208201518160010160006101000a81548173ffffffffffffffffffffffffffffffffffffffff021916908373ffffffffffffffffffffffffffffffffffffffff16021790555060408201518160020160006101000a81548173ffffffffffffffffffffffffffffffffffffffff021916908373ffffffffffffffffffffffffffffffffffffffff160217905550606082015181600301555050508373ffffffffffffffffffffffffffffffffffffffff168573ffffffffffffffffffffffffffffffffffffffff163373ffffffffffffffffffffffffffffffffffffffff167fe2ee69d2902d197c8634f8d2ca4201d8f85e1b4e383a7e8fccdd60b74285432684876040516104d4929190611430565b60405180910390a4809150509392505050565b606060016000838152602001908152602001600020805480602002602001604051908101604052809291908181526020016000905b8282101561069d57838290600052602060002090600302016060604051908101604052908160008201548152602001600182018054600181600116156101000203166002900480601f0160208091040260200160405190810160405280929190818152602001828054600181600116156101000203166002900480156105e35780601f106105b8576101008083540402835291602001916105e3565b820191906000526020600020905b8154815290600101906020018083116105c657829003601f168201915b50505050508152602001600282018054600181600116156101000203166002900480601f0160208091040260200160405190810160405280929190818152602001828054600181600116156101000203166002900480156106855780601f1061065a57610100808354040283529160200191610685565b820191906000526020600020905b81548152906001019060200180831161066857829003601f168201915b5050505050815250508152602001906001019061051c565b505050509050919050565b6000806000838154811015156106ba57fe5b9060005260206000209060040201600301549050600080848154811015156106de57fe5b906000526020600020906004020160010160009054906101000a900473ffffffffffffffffffffffffffffffffffffffff1690508073ffffffffffffffffffffffffffffffffffffffff163373ffffffffffffffffffffffffffffffffffffffff1614151561074c57600080fd5b3373ffffffffffffffffffffffffffffffffffffffff166108fc670de0b6b3a7640000600a6009860281151561077e57fe5b04029081150290604051600060405180830381858888f193505050501580156107ab573d6000803e3d6000fd5b50604080519081016040528083815260200185815250600460008781526020019081526020016000206000820151816000015560208201518160010155905050847f70cb18466ae64b0cfda76478cbd835228f6f7b9d37f57475b0553b53c2800285838660405161081d929190611430565b60405180910390a260009250505092915050565b60028054600181600116156101000203166002900480601f0160208091040260200160405190810160405280929190818152602001828054600181600116156101000203166002900480156108c75780601f1061089c576101008083540402835291602001916108c7565b820191906000526020600020905b8154815290600101906020018083116108aa57829003601f168201915b505050505081565b60038054600181600116156101000203166002900480601f0160208091040260200160405190810160405280929190818152602001828054600181600116156101000203166002900480156109655780601f1061093a57610100808354040283529160200191610965565b820191906000526020600020905b81548152906001019060200180831161094857829003601f168201915b505050505081565b610975610da1565b6000821015801561098a575060008054905082105b151561099557600080fd5b6000828154811015156109a457fe5b9060005260206000209060040201608060405190810160405290816000820160009054906101000a900473ffffffffffffffffffffffffffffffffffffffff1673ffffffffffffffffffffffffffffffffffffffff1673ffffffffffffffffffffffffffffffffffffffff1681526020016001820160009054906101000a900473ffffffffffffffffffffffffffffffffffffffff1673ffffffffffffffffffffffffffffffffffffffff1673ffffffffffffffffffffffffffffffffffffffff1681526020016002820160009054906101000a900473ffffffffffffffffffffffffffffffffffffffff1673ffffffffffffffffffffffffffffffffffffffff1673ffffffffffffffffffffffffffffffffffffffff1681526020016003820154815250509050919050565b60008360029080519060200190610ae9929190610e0c565b508260039080519060200190610b00929190610e0c565b506001600086815260200190815260200160002060606040519081016040528084815260200160028054600181600116156101000203166002900480601f016020809104026020016040519081016040528092919081815260200182805460018160011615610100020316600290048015610bbc5780601f10610b9157610100808354040283529160200191610bbc565b820191906000526020600020905b815481529060010190602001808311610b9f57829003601f168201915b5050505050815260200160038054600181600116156101000203166002900480601f016020809104026020016040519081016040528092919081815260200182805460018160011615610100020316600290048015610c5c5780601f10610c3157610100808354040283529160200191610c5c565b820191906000526020600020905b815481529060010190602001808311610c3f57829003601f168201915b505050505081525090806001815401808255809150509060018203906000526020600020906003020160009091929091909150600082015181600001556020820151816001019080519060200190610cb5929190610e8c565b506040820151816002019080519060200190610cd2929190610e8c565b505050506000600180600088815260200190815260200160002080549050039050857fb716fa48eec8be55747b1f400596f311e0c2578300847593372e0fdabaf94fdf6002600384604051610d299392919061139a565b60405180910390a280915050949350505050565b3373ffffffffffffffffffffffffffffffffffffffff166108fc829081150290604051600060405180830381858888f19350505050158015610d83573d6000803e3d6000fd5b5050565b604080519081016040528060008152602001600081525090565b608060405190810160405280600073ffffffffffffffffffffffffffffffffffffffff168152602001600073ffffffffffffffffffffffffffffffffffffffff168152602001600073ffffffffffffffffffffffffffffffffffffffff168152602001600081525090565b828054600181600116156101000203166002900490600052602060002090601f016020900481019282601f10610e4d57805160ff1916838001178555610e7b565b82800160010185558215610e7b579182015b82811115610e7a578251825591602001919060010190610e5f565b5b509050610e889190610f0c565b5090565b828054600181600116156101000203166002900490600052602060002090601f016020900481019282601f10610ecd57805160ff1916838001178555610efb565b82800160010185558215610efb579182015b82811115610efa578251825591602001919060010190610edf565b5b509050610f089190610f0c565b5090565b610f2e91905b80821115610f2a576000816000905550600101610f12565b5090565b90565b6000610f3d8235611530565b905092915050565b6000610f518235611542565b905092915050565b600082601f8301121515610f6c57600080fd5b8135610f7f610f7a82611486565b611459565b91508082526020830160208301858383011115610f9b57600080fd5b610fa6838284611556565b50505092915050565b6000610fbb823561154c565b905092915050565b600080600060608486031215610fd857600080fd5b6000610fe686828701610f31565b9350506020610ff786828701610f31565b925050604061100886828701610faf565b9150509250925092565b60006020828403121561102457600080fd5b600061103284828501610f45565b91505092915050565b6000806000806080858703121561105157600080fd5b600061105f87828801610f45565b945050602085013567ffffffffffffffff81111561107c57600080fd5b61108887828801610f59565b935050604085013567ffffffffffffffff8111156110a557600080fd5b6110b187828801610f59565b92505060606110c287828801610faf565b91505092959194509250565b600080604083850312156110e157600080fd5b60006110ef85828601610f45565b925050602061110085828601610faf565b9150509250929050565b60006020828403121561111c57600080fd5b600061112a84828501610faf565b91505092915050565b61113c816114f4565b82525050565b600061114d826114d1565b80845260208401935083602082028501611166856114b2565b60005b8481101561119f57838303885261118183835161126c565b925061118c826114e7565b9150602088019750600181019050611169565b508196508694505050505092915050565b60006111bb826114dc565b8084526111cf816020860160208601611565565b6111d881611598565b602085010191505092915050565b600081546001811660008114611203576001811461122357611264565b607f600283041680865260ff198316602087015260408601935050611264565b60028204808652602086019550611239856114bf565b60005b8281101561125b5781548189015260018201915060208101905061123c565b80880195505050505b505092915050565b60006060830160008301516112846000860182611347565b506020830151848203602086015261129c82826111b0565b915050604083015184820360408601526112b682826111b0565b9150508091505092915050565b6040820160008201516112d96000850182611347565b5060208201516112ec6020850182611347565b50505050565b6080820160008201516113086000850182611133565b50602082015161131b6020850182611133565b50604082015161132e6040850182611133565b5060608201516113416060850182611347565b50505050565b61135081611526565b82525050565b600060208201905081810360008301526113708184611142565b905092915050565b6000602082019050818103600083015261139281846111b0565b905092915050565b600060608201905081810360008301526113b481866111e6565b905081810360208301526113c881856111e6565b90506113d76040830184611347565b949350505050565b60006040820190506113f460008301846112c3565b92915050565b600060808201905061140f60008301846112f2565b92915050565b600060208201905061142a6000830184611347565b92915050565b60006040820190506114456000830185611347565b6114526020830184611347565b9392505050565b6000604051905081810181811067ffffffffffffffff8211171561147c57600080fd5b8060405250919050565b600067ffffffffffffffff82111561149d57600080fd5b601f19601f8301169050602081019050919050565b6000602082019050919050565b60008160005260206000209050919050565b600081519050919050565b600081519050919050565b6000602082019050919050565b60006114ff82611506565b9050919050565b600073ffffffffffffffffffffffffffffffffffffffff82169050919050565b6000819050919050565b600061153b82611506565b9050919050565b6000819050919050565b6000819050919050565b82818337600083830152505050565b60005b83811015611583578082015181840152602081019050611568565b83811115611592576000848401525b50505050565b6000601f19601f830116905091905056fea265627a7a723058206ac7d131b2a5aaddc6f891be9c4de96e8202bde4075b46fdb344d0e8686b590b6c6578706572696d656e74616cf50037",
  "source": "pragma solidity ^0.5.0;\npragma experimental ABIEncoderV2;\n\ncontract Trips {\n\t\n\t//INITIAL VALUES\n\t//RegisterInitialTrip\n\tstruct Trip{\n\t\taddress idPassenger;\n\t\taddress idDriver;\n\t\taddress idVehicle;\n\t\tuint cost;\n\t}\n\tTrip[] initialRegisterTrip;\n\tevent initT(address indexed _idPassenger, address indexed _idDriver, address indexed _idVehicle, uint _idRegister, uint cost);\n\t\n\t//RegisterAPs\n\tstruct APTS{\n\t\tuint indexTrip;\n\t\tstring ap;\n\t\tstring timestamp;\n\t}\n\tmapping(bytes32 => APTS[]) apts;\n\tstring public ap;\n\tstring public timestamp;\n\tevent registerAP(bytes32 indexed _tripTransaction, string _ap, string _timestamp, uint _idRegister);\n\t\n\t//End Trip\n\tstruct TripReceipt{\n\t\tuint256 cost;\n\t\tuint indexTrip;\n\t}\n\tmapping(bytes32 => TripReceipt) receipts;\n\tevent endT(bytes32 indexed _tripTransaction, uint _cost, uint _indexTrip);\n\t\n\t\n\t//FUNCTIONS\n\t//Register initial Trip\n\tfunction initTrip(address idDriver, address idVehicle, uint cost) public payable returns (uint){\n\t\t//send eth to contract\n\t\trequire(uint(msg.value) / 1000000000000000000 == cost);\n\t\t\n\t\tuint idRegister = initialRegisterTrip.length;\n\t\tinitialRegisterTrip.push(Trip(msg.sender,idDriver,idVehicle,cost));\n\t\t\n\t\temit initT(msg.sender, idDriver, idVehicle,idRegister, cost);\n\t\treturn idRegister;\n\t}\n\t\n\t//Register AP and timestamp\n\tfunction regisAPandTime(bytes32 tripTransaction, string memory passedAp, string memory passedTimestamp,uint indexTrip) public returns (uint){\n\t\tap=passedAp;\n\t\ttimestamp=passedTimestamp;\n\t\t\n\t\tapts[tripTransaction].push(APTS(indexTrip, ap, timestamp));\n\t\tuint idRegister = apts[tripTransaction].length-1;\n\t\temit registerAP(tripTransaction,ap,timestamp,idRegister);\n\t\treturn idRegister;\n\t}\n\t\n\t//End Trip\n\tfunction endTrip(bytes32 tripTransaction, uint indexTrip) public returns (uint){\n\t\tuint cost= initialRegisterTrip[indexTrip].cost;\n\t\taddress driver = initialRegisterTrip[indexTrip].idDriver;\n\t\trequire(msg.sender == driver);\n\t\t\n\t\t//Transfer payment to driver\n\t\tmsg.sender.transfer(cost * 9 / 10 * 1000000000000000000);\n\t\t\n\t\treceipts[tripTransaction]=TripReceipt(cost,indexTrip);\n\t\temit endT(tripTransaction, cost, indexTrip);\n\t\treturn 0;\n\t}\n\t\n\tfunction widthdraw(uint amount) external {\n\t\t//only validators can widthdraw\n\t\t//require(msg.sender == '0x0');\n\t\tmsg.sender.transfer(amount);\n\t}\t\n\t\n\t//LOOK UP FUNCTIONS\n\tfunction getInitialTripData(uint index) public view returns (Trip memory){\n\t\trequire(index>=0 && index<initialRegisterTrip.length);\n\t\treturn initialRegisterTrip[index];\n\t}\n\t\n\tfunction getAPsInfo(bytes32 transaction) public view returns (APTS[] memory){\n\t\treturn apts[transaction];\n\t}\n\t\n\tfunction getFinalTripData(bytes32 transaction) public view returns (TripReceipt memory){\n\t\treturn receipts[transaction];\n\t}\n\t\n\t\n}\n",
  "sourcePath": "/home/rromeroor/Besu/besu-22.1.1/transport-app/contracts/Trips.sol",
  "compiler": {
    "name": "solc",
    "version": "0.5.0+commit.1d4f565a.Emscripten.clang"
  },
  "schemaVersion": "3.4.7",
  "updatedAt": "2022-04-20T06:09:55.809Z",
  "networkType": "ethereum",
  "devdoc": {
    "methods": {}
  },
  "userdoc": {
    "methods": {}
  }
}