{
  "contractName": "Trips",
  "abi": [
    {
      "constant": true,
      "inputs": [],
      "name": "ap",
      "outputs": [
        {
          "name": "",
          "type": "string"
        }
      ],
      "payable": false,
      "stateMutability": "view",
      "type": "function"
    },
    {
      "constant": true,
      "inputs": [],
      "name": "timestamp",
      "outputs": [
        {
          "name": "",
          "type": "string"
        }
      ],
      "payable": false,
      "stateMutability": "view",
      "type": "function"
    },
    {
      "anonymous": false,
      "inputs": [
        {
          "indexed": true,
          "name": "_idPassenger",
          "type": "address"
        },
        {
          "indexed": true,
          "name": "_idDriver",
          "type": "address"
        },
        {
          "indexed": true,
          "name": "_idVehicle",
          "type": "address"
        },
        {
          "indexed": false,
          "name": "_idRegister",
          "type": "uint256"
        },
        {
          "indexed": false,
          "name": "cost",
          "type": "uint256"
        }
      ],
      "name": "initT",
      "type": "event"
    },
    {
      "anonymous": false,
      "inputs": [
        {
          "indexed": true,
          "name": "_tripTransaction",
          "type": "bytes32"
        },
        {
          "indexed": false,
          "name": "_ap",
          "type": "string"
        },
        {
          "indexed": false,
          "name": "_timestamp",
          "type": "string"
        },
        {
          "indexed": false,
          "name": "_idRegister",
          "type": "uint256"
        }
      ],
      "name": "registerAP",
      "type": "event"
    },
    {
      "anonymous": false,
      "inputs": [
        {
          "indexed": true,
          "name": "_tripTransaction",
          "type": "bytes32"
        },
        {
          "indexed": false,
          "name": "_cost",
          "type": "uint256"
        },
        {
          "indexed": false,
          "name": "_indexTrip",
          "type": "uint256"
        }
      ],
      "name": "endT",
      "type": "event"
    },
    {
      "constant": false,
      "inputs": [
        {
          "name": "idDriver",
          "type": "address"
        },
        {
          "name": "idVehicle",
          "type": "address"
        },
        {
          "name": "cost",
          "type": "uint256"
        }
      ],
      "name": "initTrip",
      "outputs": [
        {
          "name": "",
          "type": "uint256"
        }
      ],
      "payable": true,
      "stateMutability": "payable",
      "type": "function"
    },
    {
      "constant": false,
      "inputs": [
        {
          "name": "tripTransaction",
          "type": "bytes32"
        },
        {
          "name": "passedAp",
          "type": "string"
        },
        {
          "name": "passedTimestamp",
          "type": "string"
        },
        {
          "name": "indexTrip",
          "type": "uint256"
        }
      ],
      "name": "regisAPandTime",
      "outputs": [
        {
          "name": "",
          "type": "uint256"
        }
      ],
      "payable": false,
      "stateMutability": "nonpayable",
      "type": "function"
    },
    {
      "constant": false,
      "inputs": [
        {
          "name": "tripTransaction",
          "type": "bytes32"
        },
        {
          "name": "indexTrip",
          "type": "uint256"
        }
      ],
      "name": "endTrip",
      "outputs": [
        {
          "name": "",
          "type": "uint256"
        }
      ],
      "payable": true,
      "stateMutability": "payable",
      "type": "function"
    },
    {
      "constant": true,
      "inputs": [
        {
          "name": "index",
          "type": "uint256"
        }
      ],
      "name": "getInitialTripData",
      "outputs": [
        {
          "components": [
            {
              "name": "idPassenger",
              "type": "address"
            },
            {
              "name": "idDriver",
              "type": "address"
            },
            {
              "name": "idVehicle",
              "type": "address"
            },
            {
              "name": "cost",
              "type": "uint256"
            }
          ],
          "name": "",
          "type": "tuple"
        }
      ],
      "payable": false,
      "stateMutability": "view",
      "type": "function"
    },
    {
      "constant": true,
      "inputs": [
        {
          "name": "transaction",
          "type": "bytes32"
        }
      ],
      "name": "getAPsInfo",
      "outputs": [
        {
          "components": [
            {
              "name": "indexTrip",
              "type": "uint256"
            },
            {
              "name": "ap",
              "type": "string"
            },
            {
              "name": "timestamp",
              "type": "string"
            }
          ],
          "name": "",
          "type": "tuple[]"
        }
      ],
      "payable": false,
      "stateMutability": "view",
      "type": "function"
    },
    {
      "constant": true,
      "inputs": [
        {
          "name": "transaction",
          "type": "bytes32"
        }
      ],
      "name": "getFinalTripData",
      "outputs": [
        {
          "components": [
            {
              "name": "cost",
              "type": "uint256"
            },
            {
              "name": "indexTrip",
              "type": "uint256"
            }
          ],
          "name": "",
          "type": "tuple"
        }
      ],
      "payable": false,
      "stateMutability": "view",
      "type": "function"
    }
  ],
  "bytecode": "0x608060405234801561001057600080fd5b50611486806100206000396000f3fe60806040526004361061008e576000357c0100000000000000000000000000000000000000000000000000000000900463ffffffff1680630fff05911461009357806313efebcd146100d05780631bb898f5146101005780632cb5c79d1461013d5780633c4f743c1461016d578063b80777ea14610198578063cfb315dc146101c3578063dd95279a14610200575b600080fd5b34801561009f57600080fd5b506100ba60048036036100b59190810190610eb5565b61023d565b6040516100c79190611282565b60405180910390f35b6100ea60048036036100e59190810190610e66565b61027e565b6040516100f791906112b8565b60405180910390f35b34801561010c57600080fd5b5061012760048036036101229190810190610eb5565b61049c565b60405161013491906111f9565b60405180910390f35b61015760048036036101529190810190610f71565b61065d565b60405161016491906112b8565b60405180910390f35b34801561017957600080fd5b5061018261071e565b60405161018f919061121b565b60405180910390f35b3480156101a457600080fd5b506101ad6107bc565b6040516101ba919061121b565b60405180910390f35b3480156101cf57600080fd5b506101ea60048036036101e59190810190610fad565b61085a565b6040516101f7919061129d565b60405180910390f35b34801561020c57600080fd5b5061022760048036036102229190810190610ede565b6109be565b60405161023491906112b8565b60405180910390f35b610245610c2a565b60046000838152602001908152602001600020604080519081016040529081600082015481526020016001820154815250509050919050565b6000670de0b6b3a7640000341015151561029757600080fd5b60008080549050905060006080604051908101604052803373ffffffffffffffffffffffffffffffffffffffff1681526020018773ffffffffffffffffffffffffffffffffffffffff1681526020018673ffffffffffffffffffffffffffffffffffffffff168152602001858152509080600181540180825580915050906001820390600052602060002090600402016000909192909190915060008201518160000160006101000a81548173ffffffffffffffffffffffffffffffffffffffff021916908373ffffffffffffffffffffffffffffffffffffffff16021790555060208201518160010160006101000a81548173ffffffffffffffffffffffffffffffffffffffff021916908373ffffffffffffffffffffffffffffffffffffffff16021790555060408201518160020160006101000a81548173ffffffffffffffffffffffffffffffffffffffff021916908373ffffffffffffffffffffffffffffffffffffffff160217905550606082015181600301555050508373ffffffffffffffffffffffffffffffffffffffff168573ffffffffffffffffffffffffffffffffffffffff163373ffffffffffffffffffffffffffffffffffffffff167fe2ee69d2902d197c8634f8d2ca4201d8f85e1b4e383a7e8fccdd60b74285432684876040516104899291906112d3565b60405180910390a4809150509392505050565b606060016000838152602001908152602001600020805480602002602001604051908101604052809291908181526020016000905b8282101561065257838290600052602060002090600302016060604051908101604052908160008201548152602001600182018054600181600116156101000203166002900480601f0160208091040260200160405190810160405280929190818152602001828054600181600116156101000203166002900480156105985780601f1061056d57610100808354040283529160200191610598565b820191906000526020600020905b81548152906001019060200180831161057b57829003601f168201915b50505050508152602001600282018054600181600116156101000203166002900480601f01602080910402602001604051908101604052809291908181526020018280546001816001161561010002031660029004801561063a5780601f1061060f5761010080835404028352916020019161063a565b820191906000526020600020905b81548152906001019060200180831161061d57829003601f168201915b505050505081525050815260200190600101906104d1565b505050509050919050565b6000670de0b6b3a7640000341015151561067657600080fd5b6000808381548110151561068657fe5b9060005260206000209060040201600301549050604080519081016040528082815260200184815250600460008681526020019081526020016000206000820151816000015560208201518160010155905050837f70cb18466ae64b0cfda76478cbd835228f6f7b9d37f57475b0553b53c2800285828560405161070b9291906112d3565b60405180910390a2600091505092915050565b60028054600181600116156101000203166002900480601f0160208091040260200160405190810160405280929190818152602001828054600181600116156101000203166002900480156107b45780601f10610789576101008083540402835291602001916107b4565b820191906000526020600020905b81548152906001019060200180831161079757829003601f168201915b505050505081565b60038054600181600116156101000203166002900480601f0160208091040260200160405190810160405280929190818152602001828054600181600116156101000203166002900480156108525780601f1061082757610100808354040283529160200191610852565b820191906000526020600020905b81548152906001019060200180831161083557829003601f168201915b505050505081565b610862610c44565b60008210158015610877575060008054905082105b151561088257600080fd5b60008281548110151561089157fe5b9060005260206000209060040201608060405190810160405290816000820160009054906101000a900473ffffffffffffffffffffffffffffffffffffffff1673ffffffffffffffffffffffffffffffffffffffff1673ffffffffffffffffffffffffffffffffffffffff1681526020016001820160009054906101000a900473ffffffffffffffffffffffffffffffffffffffff1673ffffffffffffffffffffffffffffffffffffffff1673ffffffffffffffffffffffffffffffffffffffff1681526020016002820160009054906101000a900473ffffffffffffffffffffffffffffffffffffffff1673ffffffffffffffffffffffffffffffffffffffff1673ffffffffffffffffffffffffffffffffffffffff1681526020016003820154815250509050919050565b600083600290805190602001906109d6929190610caf565b5082600390805190602001906109ed929190610caf565b506001600086815260200190815260200160002060606040519081016040528084815260200160028054600181600116156101000203166002900480601f016020809104026020016040519081016040528092919081815260200182805460018160011615610100020316600290048015610aa95780601f10610a7e57610100808354040283529160200191610aa9565b820191906000526020600020905b815481529060010190602001808311610a8c57829003601f168201915b5050505050815260200160038054600181600116156101000203166002900480601f016020809104026020016040519081016040528092919081815260200182805460018160011615610100020316600290048015610b495780601f10610b1e57610100808354040283529160200191610b49565b820191906000526020600020905b815481529060010190602001808311610b2c57829003601f168201915b505050505081525090806001815401808255809150509060018203906000526020600020906003020160009091929091909150600082015181600001556020820151816001019080519060200190610ba2929190610d2f565b506040820151816002019080519060200190610bbf929190610d2f565b505050506000600180600088815260200190815260200160002080549050039050857fb716fa48eec8be55747b1f400596f311e0c2578300847593372e0fdabaf94fdf6002600384604051610c169392919061123d565b60405180910390a280915050949350505050565b604080519081016040528060008152602001600081525090565b608060405190810160405280600073ffffffffffffffffffffffffffffffffffffffff168152602001600073ffffffffffffffffffffffffffffffffffffffff168152602001600073ffffffffffffffffffffffffffffffffffffffff168152602001600081525090565b828054600181600116156101000203166002900490600052602060002090601f016020900481019282601f10610cf057805160ff1916838001178555610d1e565b82800160010185558215610d1e579182015b82811115610d1d578251825591602001919060010190610d02565b5b509050610d2b9190610daf565b5090565b828054600181600116156101000203166002900490600052602060002090601f016020900481019282601f10610d7057805160ff1916838001178555610d9e565b82800160010185558215610d9e579182015b82811115610d9d578251825591602001919060010190610d82565b5b509050610dab9190610daf565b5090565b610dd191905b80821115610dcd576000816000905550600101610db5565b5090565b90565b6000610de082356113d3565b905092915050565b6000610df482356113e5565b905092915050565b600082601f8301121515610e0f57600080fd5b8135610e22610e1d82611329565b6112fc565b91508082526020830160208301858383011115610e3e57600080fd5b610e498382846113f9565b50505092915050565b6000610e5e82356113ef565b905092915050565b600080600060608486031215610e7b57600080fd5b6000610e8986828701610dd4565b9350506020610e9a86828701610dd4565b9250506040610eab86828701610e52565b9150509250925092565b600060208284031215610ec757600080fd5b6000610ed584828501610de8565b91505092915050565b60008060008060808587031215610ef457600080fd5b6000610f0287828801610de8565b945050602085013567ffffffffffffffff811115610f1f57600080fd5b610f2b87828801610dfc565b935050604085013567ffffffffffffffff811115610f4857600080fd5b610f5487828801610dfc565b9250506060610f6587828801610e52565b91505092959194509250565b60008060408385031215610f8457600080fd5b6000610f9285828601610de8565b9250506020610fa385828601610e52565b9150509250929050565b600060208284031215610fbf57600080fd5b6000610fcd84828501610e52565b91505092915050565b610fdf81611397565b82525050565b6000610ff082611374565b8084526020840193508360208202850161100985611355565b60005b8481101561104257838303885261102483835161110f565b925061102f8261138a565b915060208801975060018101905061100c565b508196508694505050505092915050565b600061105e8261137f565b808452611072816020860160208601611408565b61107b8161143b565b602085010191505092915050565b6000815460018116600081146110a657600181146110c657611107565b607f600283041680865260ff198316602087015260408601935050611107565b600282048086526020860195506110dc85611362565b60005b828110156110fe578154818901526001820191506020810190506110df565b80880195505050505b505092915050565b600060608301600083015161112760008601826111ea565b506020830151848203602086015261113f8282611053565b915050604083015184820360408601526111598282611053565b9150508091505092915050565b60408201600082015161117c60008501826111ea565b50602082015161118f60208501826111ea565b50505050565b6080820160008201516111ab6000850182610fd6565b5060208201516111be6020850182610fd6565b5060408201516111d16040850182610fd6565b5060608201516111e460608501826111ea565b50505050565b6111f3816113c9565b82525050565b600060208201905081810360008301526112138184610fe5565b905092915050565b600060208201905081810360008301526112358184611053565b905092915050565b600060608201905081810360008301526112578186611089565b9050818103602083015261126b8185611089565b905061127a60408301846111ea565b949350505050565b60006040820190506112976000830184611166565b92915050565b60006080820190506112b26000830184611195565b92915050565b60006020820190506112cd60008301846111ea565b92915050565b60006040820190506112e860008301856111ea565b6112f560208301846111ea565b9392505050565b6000604051905081810181811067ffffffffffffffff8211171561131f57600080fd5b8060405250919050565b600067ffffffffffffffff82111561134057600080fd5b601f19601f8301169050602081019050919050565b6000602082019050919050565b60008160005260206000209050919050565b600081519050919050565b600081519050919050565b6000602082019050919050565b60006113a2826113a9565b9050919050565b600073ffffffffffffffffffffffffffffffffffffffff82169050919050565b6000819050919050565b60006113de826113a9565b9050919050565b6000819050919050565b6000819050919050565b82818337600083830152505050565b60005b8381101561142657808201518184015260208101905061140b565b83811115611435576000848401525b50505050565b6000601f19601f830116905091905056fea265627a7a7230582013d5edf4a4a08efe33f9baa59f5e31dc6c2b3b4f1ecacef7bea8d48783a82f966c6578706572696d656e74616cf50037",
  "source": "pragma solidity ^0.5.0;\npragma experimental ABIEncoderV2;\n\ncontract Trips {\n\t\n\t//INITIAL VALUES\n\t//RegisterInitialTrip\n\tstruct Trip{\n\t\taddress idPassenger;\n\t\taddress idDriver;\n\t\taddress idVehicle;\n\t\tuint cost;\n\t}\n\tTrip[] initialRegisterTrip;\n\tevent initT(address indexed _idPassenger, address indexed _idDriver, address indexed _idVehicle, uint _idRegister, uint cost);\n\t\n\t//RegisterAPs\n\tstruct APTS{\n\t\tuint indexTrip;\n\t\tstring ap;\n\t\tstring timestamp;\n\t}\n\tmapping(bytes32 => APTS[]) apts;\n\tstring public ap;\n\tstring public timestamp;\n\tevent registerAP(bytes32 indexed _tripTransaction, string _ap, string _timestamp, uint _idRegister);\n\t\n\t//End Trip\n\tstruct TripReceipt{\n\t\tuint cost;\n\t\tuint indexTrip;\n\t}\n\tmapping(bytes32 => TripReceipt) receipts;\n\tevent endT(bytes32 indexed _tripTransaction, uint _cost, uint _indexTrip);\n\t\n\t\n\t//FUNCTIONS\n\t//Register initial Trip\n\tfunction initTrip(address idDriver, address idVehicle, uint cost) public payable returns (uint){\n\t\t//send eth to contract\n\t\trequire(msg.value >= 1 ether);\n\t\t\n\t\tuint idRegister = initialRegisterTrip.length;\n\t\tinitialRegisterTrip.push(Trip(msg.sender,idDriver,idVehicle,cost));\n\t\t\n\t\temit initT(msg.sender, idDriver, idVehicle,idRegister, cost);\n\t\treturn idRegister;\n\t}\n\t\n\t//Register AP and timestamp\n\tfunction regisAPandTime(bytes32 tripTransaction, string memory passedAp, string memory passedTimestamp,uint indexTrip) public returns (uint){\n\t\tap=passedAp;\n\t\ttimestamp=passedTimestamp;\n\t\t\n\t\tapts[tripTransaction].push(APTS(indexTrip, ap, timestamp));\n\t\tuint idRegister = apts[tripTransaction].length-1;\n\t\temit registerAP(tripTransaction,ap,timestamp,idRegister);\n\t\treturn idRegister;\n\t}\n\t\n\t//End Trip\n\tfunction endTrip(bytes32 tripTransaction, uint indexTrip) public payable returns (uint){\n\t\trequire(msg.value >= 1 ether);\n\t\tuint cost= initialRegisterTrip[indexTrip].cost;\n\t\t\n\t\treceipts[tripTransaction]=TripReceipt(cost,indexTrip);\n\t\t//address addressDriver=initialRegisterTrip[indexTrip][2];\n\t\temit endT(tripTransaction, cost, indexTrip);\n\t\treturn 0;\n\t}\t\n\t\n\t//LOOK UP FUNCTIONS\n\tfunction getInitialTripData(uint index) public view returns (Trip memory){\n\t\trequire(index>=0 && index<initialRegisterTrip.length);\n\t\treturn initialRegisterTrip[index];\n\t}\n\t\n\tfunction getAPsInfo(bytes32 transaction) public view returns (APTS[] memory){\n\t\treturn apts[transaction];\n\t}\n\t\n\tfunction getFinalTripData(bytes32 transaction) public view returns (TripReceipt memory){\n\t\treturn receipts[transaction];\n\t}\n\t\n\t\n}\n",
  "sourcePath": "/home/rromeroor/Besu/besu-22.1.1/transport-app/contracts/Trips.sol",
  "compiler": {
    "name": "solc",
    "version": "0.5.0+commit.1d4f565a.Emscripten.clang"
  },
  "schemaVersion": "3.4.7",
  "updatedAt": "2022-04-19T14:12:44.704Z",
  "networkType": "ethereum",
  "devdoc": {
    "methods": {}
  },
  "userdoc": {
    "methods": {}
  }
}