{
  "contractName": "Trips",
  "abi": [
    {
      "constant": true,
      "inputs": [
        {
          "name": "",
          "type": "uint256"
        },
        {
          "name": "",
          "type": "uint256"
        }
      ],
      "name": "initialRegisterTrip",
      "outputs": [
        {
          "name": "",
          "type": "address"
        }
      ],
      "payable": false,
      "stateMutability": "view",
      "type": "function"
    },
    {
      "constant": true,
      "inputs": [],
      "name": "ap",
      "outputs": [
        {
          "name": "",
          "type": "string"
        }
      ],
      "payable": false,
      "stateMutability": "view",
      "type": "function"
    },
    {
      "constant": true,
      "inputs": [],
      "name": "timestamp",
      "outputs": [
        {
          "name": "",
          "type": "string"
        }
      ],
      "payable": false,
      "stateMutability": "view",
      "type": "function"
    },
    {
      "anonymous": false,
      "inputs": [
        {
          "indexed": true,
          "name": "_idPassenger",
          "type": "address"
        },
        {
          "indexed": true,
          "name": "_idDriver",
          "type": "address"
        },
        {
          "indexed": true,
          "name": "_idVehicle",
          "type": "address"
        },
        {
          "indexed": false,
          "name": "_idRegister",
          "type": "uint256"
        }
      ],
      "name": "initT",
      "type": "event"
    },
    {
      "anonymous": false,
      "inputs": [
        {
          "indexed": true,
          "name": "_tripTransaction",
          "type": "address"
        },
        {
          "indexed": false,
          "name": "_ap",
          "type": "string"
        },
        {
          "indexed": false,
          "name": "_timestamp",
          "type": "string"
        },
        {
          "indexed": false,
          "name": "_idRegister",
          "type": "uint256"
        }
      ],
      "name": "registerAP",
      "type": "event"
    },
    {
      "anonymous": false,
      "inputs": [
        {
          "indexed": true,
          "name": "_tripTransaction",
          "type": "address"
        },
        {
          "indexed": false,
          "name": "_cost",
          "type": "uint256"
        },
        {
          "indexed": false,
          "name": "_indexTrip",
          "type": "uint256"
        }
      ],
      "name": "endT",
      "type": "event"
    },
    {
      "constant": false,
      "inputs": [
        {
          "name": "idDriver",
          "type": "address"
        },
        {
          "name": "idVehicle",
          "type": "address"
        }
      ],
      "name": "initTrip",
      "outputs": [
        {
          "name": "",
          "type": "uint256"
        }
      ],
      "payable": false,
      "stateMutability": "nonpayable",
      "type": "function"
    },
    {
      "constant": false,
      "inputs": [
        {
          "name": "tripTransaction",
          "type": "address"
        },
        {
          "name": "passedAp",
          "type": "string"
        },
        {
          "name": "passedTimestamp",
          "type": "string"
        },
        {
          "name": "indexTrip",
          "type": "uint256"
        }
      ],
      "name": "regisAPandTime",
      "outputs": [
        {
          "name": "",
          "type": "uint256"
        }
      ],
      "payable": false,
      "stateMutability": "nonpayable",
      "type": "function"
    },
    {
      "constant": false,
      "inputs": [
        {
          "name": "tripTransaction",
          "type": "address"
        },
        {
          "name": "cost",
          "type": "uint256"
        },
        {
          "name": "indexTrip",
          "type": "uint256"
        }
      ],
      "name": "endTrip",
      "outputs": [
        {
          "name": "",
          "type": "uint256"
        }
      ],
      "payable": false,
      "stateMutability": "nonpayable",
      "type": "function"
    },
    {
      "constant": true,
      "inputs": [
        {
          "name": "index",
          "type": "uint256"
        }
      ],
      "name": "getInitialTripData",
      "outputs": [
        {
          "name": "",
          "type": "address[3]"
        }
      ],
      "payable": false,
      "stateMutability": "view",
      "type": "function"
    },
    {
      "constant": true,
      "inputs": [
        {
          "name": "transaction",
          "type": "address"
        }
      ],
      "name": "getAPsInfo",
      "outputs": [
        {
          "components": [
            {
              "name": "indexTrip",
              "type": "uint256"
            },
            {
              "name": "ap",
              "type": "string"
            },
            {
              "name": "timestamp",
              "type": "string"
            }
          ],
          "name": "",
          "type": "tuple[]"
        }
      ],
      "payable": false,
      "stateMutability": "view",
      "type": "function"
    },
    {
      "constant": true,
      "inputs": [
        {
          "name": "transaction",
          "type": "address"
        }
      ],
      "name": "getFinalTripData",
      "outputs": [
        {
          "components": [
            {
              "name": "cost",
              "type": "uint256"
            },
            {
              "name": "indexTrip",
              "type": "uint256"
            }
          ],
          "name": "",
          "type": "tuple"
        }
      ],
      "payable": false,
      "stateMutability": "view",
      "type": "function"
    }
  ],
  "bytecode": "0x608060405234801561001057600080fd5b506115cb806100206000396000f3fe608060405260043610610098576000357c0100000000000000000000000000000000000000000000000000000000900463ffffffff1680626c266e1461009d5780630496de10146100da57806338623143146101175780633c4f743c146101545780633d82aca01461017f578063b80777ea146101bc578063c1605414146101e7578063cfb315dc14610224578063ea6e907e14610261575b600080fd5b3480156100a957600080fd5b506100c460048036036100bf9190810190610fab565b61029e565b6040516100d191906113e5565b60405180910390f35b3480156100e657600080fd5b5061010160048036036100fc91908101906110b6565b610578565b60405161010e919061130b565b60405180910390f35b34801561012357600080fd5b5061013e60048036036101399190810190610f46565b6105cb565b60405161014b9190611341565b60405180910390f35b34801561016057600080fd5b506101696107b8565b6040516101769190611363565b60405180910390f35b34801561018b57600080fd5b506101a660048036036101a1919081019061103e565b610856565b6040516101b391906113e5565b60405180910390f35b3480156101c857600080fd5b506101d161096f565b6040516101de9190611363565b60405180910390f35b3480156101f357600080fd5b5061020e60048036036102099190810190610f46565b610a0d565b60405161021b91906113ca565b60405180910390f35b34801561023057600080fd5b5061024b6004803603610246919081019061108d565b610a7a565b6040516102589190611326565b60405180910390f35b34801561026d57600080fd5b5061028860048036036102839190810190610f6f565b610b38565b60405161029591906113e5565b60405180910390f35b600083600290805190602001906102b6929190610ca6565b5082600390805190602001906102cd929190610ca6565b50600160008673ffffffffffffffffffffffffffffffffffffffff1673ffffffffffffffffffffffffffffffffffffffff16815260200190815260200160002060606040519081016040528084815260200160028054600181600116156101000203166002900480601f0160208091040260200160405190810160405280929190818152602001828054600181600116156101000203166002900480156103b55780601f1061038a576101008083540402835291602001916103b5565b820191906000526020600020905b81548152906001019060200180831161039857829003601f168201915b5050505050815260200160038054600181600116156101000203166002900480601f0160208091040260200160405190810160405280929190818152602001828054600181600116156101000203166002900480156104555780601f1061042a57610100808354040283529160200191610455565b820191906000526020600020905b81548152906001019060200180831161043857829003601f168201915b5050505050815250908060018154018082558091505090600182039060005260206000209060030201600090919290919091506000820151816000015560208201518160010190805190602001906104ae929190610d26565b5060408201518160020190805190602001906104cb929190610d26565b50505050600060018060008873ffffffffffffffffffffffffffffffffffffffff1673ffffffffffffffffffffffffffffffffffffffff168152602001908152602001600020805490500390508573ffffffffffffffffffffffffffffffffffffffff167fe36087d01c6d45b2461bf9936c94aaa777363762398133a849134f7ffd34004f600260038460405161056493929190611385565b60405180910390a280915050949350505050565b60008281548110151561058757fe5b9060005260206000209060030201816003811015156105a257fe5b016000915091509054906101000a900473ffffffffffffffffffffffffffffffffffffffff1681565b6060600160008373ffffffffffffffffffffffffffffffffffffffff1673ffffffffffffffffffffffffffffffffffffffff168152602001908152602001600020805480602002602001604051908101604052809291908181526020016000905b828210156107ad57838290600052602060002090600302016060604051908101604052908160008201548152602001600182018054600181600116156101000203166002900480601f0160208091040260200160405190810160405280929190818152602001828054600181600116156101000203166002900480156106f35780601f106106c8576101008083540402835291602001916106f3565b820191906000526020600020905b8154815290600101906020018083116106d657829003601f168201915b50505050508152602001600282018054600181600116156101000203166002900480601f0160208091040260200160405190810160405280929190818152602001828054600181600116156101000203166002900480156107955780601f1061076a57610100808354040283529160200191610795565b820191906000526020600020905b81548152906001019060200180831161077857829003601f168201915b5050505050815250508152602001906001019061062c565b505050509050919050565b60028054600181600116156101000203166002900480601f01602080910402602001604051908101604052809291908181526020018280546001816001161561010002031660029004801561084e5780601f106108235761010080835404028352916020019161084e565b820191906000526020600020905b81548152906001019060200180831161083157829003601f168201915b505050505081565b6000604080519081016040528084815260200183815250600460008673ffffffffffffffffffffffffffffffffffffffff1673ffffffffffffffffffffffffffffffffffffffff1681526020019081526020016000206000820151816000015560208201518160010155905050600080838154811015156108d357fe5b906000526020600020906003020160026003811015156108ef57fe5b0160009054906101000a900473ffffffffffffffffffffffffffffffffffffffff1690508473ffffffffffffffffffffffffffffffffffffffff167faf6add411bacde055be4b0a7ccb2963e8afd5077162d867f76c4c27d2741038f858560405161095b929190611400565b60405180910390a260009150509392505050565b60038054600181600116156101000203166002900480601f016020809104026020016040519081016040528092919081815260200182805460018160011615610100020316600290048015610a055780601f106109da57610100808354040283529160200191610a05565b820191906000526020600020905b8154815290600101906020018083116109e857829003601f168201915b505050505081565b610a15610da6565b600460008373ffffffffffffffffffffffffffffffffffffffff1673ffffffffffffffffffffffffffffffffffffffff168152602001908152602001600020604080519081016040529081600082015481526020016001820154815250509050919050565b610a82610dc0565b60008210158015610a97575060008054905082105b1515610aa257600080fd5b600082815481101515610ab157fe5b9060005260206000209060030201600380602002604051908101604052809291908260038015610b2c576020028201915b8160009054906101000a900473ffffffffffffffffffffffffffffffffffffffff1673ffffffffffffffffffffffffffffffffffffffff1681526020019060010190808311610ae2575b50505050509050919050565b600080600080549050905060006060604051908101604052803373ffffffffffffffffffffffffffffffffffffffff1673ffffffffffffffffffffffffffffffffffffffff1681526020018673ffffffffffffffffffffffffffffffffffffffff1673ffffffffffffffffffffffffffffffffffffffff1681526020018573ffffffffffffffffffffffffffffffffffffffff1673ffffffffffffffffffffffffffffffffffffffff1681525090806001815401808255809150509060018203906000526020600020906003020160009091929091909150906003610c1e929190610de3565b50508273ffffffffffffffffffffffffffffffffffffffff168473ffffffffffffffffffffffffffffffffffffffff163373ffffffffffffffffffffffffffffffffffffffff167f59e22f56df324c900314efa670eda62f1e121a96dc4deb75000d17c7f1ae49af84604051610c9491906113e5565b60405180910390a48091505092915050565b828054600181600116156101000203166002900490600052602060002090601f016020900481019282601f10610ce757805160ff1916838001178555610d15565b82800160010185558215610d15579182015b82811115610d14578251825591602001919060010190610cf9565b5b509050610d229190610e60565b5090565b828054600181600116156101000203166002900490600052602060002090601f016020900481019282601f10610d6757805160ff1916838001178555610d95565b82800160010185558215610d95579182015b82811115610d94578251825591602001919060010190610d79565b5b509050610da29190610e60565b5090565b604080519081016040528060008152602001600081525090565b606060405190810160405280600390602082028038833980820191505090505090565b8260038101928215610e4f579160200282015b82811115610e4e5782518260006101000a81548173ffffffffffffffffffffffffffffffffffffffff021916908373ffffffffffffffffffffffffffffffffffffffff16021790555091602001919060010190610df6565b5b509050610e5c9190610e85565b5090565b610e8291905b80821115610e7e576000816000905550600101610e66565b5090565b90565b610ec591905b80821115610ec157600081816101000a81549073ffffffffffffffffffffffffffffffffffffffff021916905550600101610e8b565b5090565b90565b6000610ed48235611522565b905092915050565b600082601f8301121515610eef57600080fd5b8135610f02610efd82611456565b611429565b91508082526020830160208301858383011115610f1e57600080fd5b610f2983828461153e565b50505092915050565b6000610f3e8235611534565b905092915050565b600060208284031215610f5857600080fd5b6000610f6684828501610ec8565b91505092915050565b60008060408385031215610f8257600080fd5b6000610f9085828601610ec8565b9250506020610fa185828601610ec8565b9150509250929050565b60008060008060808587031215610fc157600080fd5b6000610fcf87828801610ec8565b945050602085013567ffffffffffffffff811115610fec57600080fd5b610ff887828801610edc565b935050604085013567ffffffffffffffff81111561101557600080fd5b61102187828801610edc565b925050606061103287828801610f32565b91505092959194509250565b60008060006060848603121561105357600080fd5b600061106186828701610ec8565b935050602061107286828701610f32565b925050604061108386828701610f32565b9150509250925092565b60006020828403121561109f57600080fd5b60006110ad84828501610f32565b91505092915050565b600080604083850312156110c957600080fd5b60006110d785828601610f32565b92505060206110e885828601610f32565b9150509250929050565b6110fb816114e6565b82525050565b61110a816114ab565b61111382611482565b60005b82811015611145576111298583516110f2565b611132826114cc565b9150602085019450600181019050611116565b5050505050565b6000611157826114b6565b808452602084019350836020820285016111708561148c565b60005b848110156111a957838303885261118b838351611276565b9250611196826114d9565b9150602088019750600181019050611173565b508196508694505050505092915050565b60006111c5826114c1565b8084526111d981602086016020860161154d565b6111e281611580565b602085010191505092915050565b60008154600181166000811461120d576001811461122d5761126e565b607f600283041680865260ff19831660208701526040860193505061126e565b6002820480865260208601955061124385611499565b60005b8281101561126557815481890152600182019150602081019050611246565b80880195505050505b505092915050565b600060608301600083015161128e60008601826112fc565b50602083015184820360208601526112a682826111ba565b915050604083015184820360408601526112c082826111ba565b9150508091505092915050565b6040820160008201516112e360008501826112fc565b5060208201516112f660208501826112fc565b50505050565b61130581611518565b82525050565b600060208201905061132060008301846110f2565b92915050565b600060608201905061133b6000830184611101565b92915050565b6000602082019050818103600083015261135b818461114c565b905092915050565b6000602082019050818103600083015261137d81846111ba565b905092915050565b6000606082019050818103600083015261139f81866111f0565b905081810360208301526113b381856111f0565b90506113c260408301846112fc565b949350505050565b60006040820190506113df60008301846112cd565b92915050565b60006020820190506113fa60008301846112fc565b92915050565b600060408201905061141560008301856112fc565b61142260208301846112fc565b9392505050565b6000604051905081810181811067ffffffffffffffff8211171561144c57600080fd5b8060405250919050565b600067ffffffffffffffff82111561146d57600080fd5b601f19601f8301169050602081019050919050565b6000819050919050565b6000602082019050919050565b60008160005260206000209050919050565b600060039050919050565b600081519050919050565b600081519050919050565b6000602082019050919050565b6000602082019050919050565b60006114f1826114f8565b9050919050565b600073ffffffffffffffffffffffffffffffffffffffff82169050919050565b6000819050919050565b600061152d826114f8565b9050919050565b6000819050919050565b82818337600083830152505050565b60005b8381101561156b578082015181840152602081019050611550565b8381111561157a576000848401525b50505050565b6000601f19601f830116905091905056fea265627a7a72305820dada54cd08bfca4118082a147944749f93ee72891d9e4812020781030225ef296c6578706572696d656e74616cf50037",
  "source": "pragma solidity ^0.5.0;\npragma experimental ABIEncoderV2;\n\ncontract Trips {\n\t\n\t//INITIAL VALUES\n\t//RegisterInitialTrip\n\taddress[3][] public initialRegisterTrip;\n\tevent initT(address indexed _idPassenger, address indexed _idDriver, address indexed _idVehicle, uint _idRegister);\n\t\n\t//RegisterAPs\n\tstruct APTS{\n\t\tuint indexTrip;\n\t\tstring ap;\n\t\tstring timestamp;\n\t}\n\tmapping(address => APTS[]) apts;\n\tstring public ap;\n\tstring public timestamp;\n\tevent registerAP(address indexed _tripTransaction, string _ap, string _timestamp, uint _idRegister);\n\t\n\t//End Trip\n\tstruct TripReceipt{\n\t\tuint cost;\n\t\tuint indexTrip;\n\t}\n\tmapping(address => TripReceipt) receipts;\n\tevent endT(address indexed _tripTransaction, uint _cost, uint _indexTrip);\n\t\n\t\n\t//FUNCTIONS\n\t//Register initial Trip\n\tfunction initTrip(address idDriver, address idVehicle) public returns (uint){\n\t\t\n\t\t//send eth to contract\n\t\t\n\t\tuint idRegister = initialRegisterTrip.length;\n\t\tinitialRegisterTrip.push([msg.sender,idDriver,idVehicle]);\n\t\t\n\t\temit initT(msg.sender, idDriver, idVehicle,idRegister);\n\t\treturn idRegister;\n\t}\n\t\n\t//Register AP and timestamp\n\tfunction regisAPandTime(address tripTransaction, string memory passedAp, string memory passedTimestamp,uint indexTrip) public returns (uint){\n\t\tap=passedAp;\n\t\ttimestamp=passedTimestamp;\n\t\t\n\t\tapts[tripTransaction].push(APTS(indexTrip, ap, timestamp));\n\t\tuint idRegister = apts[tripTransaction].length-1;\n\t\temit registerAP(tripTransaction,ap,timestamp,idRegister);\n\t\treturn idRegister;\n\t}\n\t\n\t//End Trip\n\tfunction endTrip(address tripTransaction, uint cost, uint indexTrip) public returns (uint){\n\t\treceipts[tripTransaction]=TripReceipt(cost,indexTrip);\n\t\taddress addressDriver=initialRegisterTrip[indexTrip][2];\n\t\t\n\t\t//send eth to address\n\t\t\n\t\temit endT(tripTransaction, cost, indexTrip);\n\t\treturn 0;\n\t}\t\n\t\n\t\n\t//LOOK UP FUNCTIONS\n\tfunction getInitialTripData(uint index) public view returns (address[3] memory){\n\t\trequire(index>=0 && index<initialRegisterTrip.length);\n\t\treturn initialRegisterTrip[index];\n\t}\n\t\n\tfunction getAPsInfo(address transaction) public view returns (APTS[] memory){\n\t\treturn apts[transaction];\n\t}\n\t\n\tfunction getFinalTripData(address transaction) public view returns (TripReceipt memory){\n\t\treturn receipts[transaction];\n\t}\n\t\n\t\n}\n",
  "sourcePath": "/home/rromeroor/Besu/besu-22.1.1/transport-app/contracts/Trips.sol",
  "compiler": {
    "name": "solc",
    "version": "0.5.0+commit.1d4f565a.Emscripten.clang"
  },
  "schemaVersion": "3.4.7",
  "updatedAt": "2022-04-12T20:00:44.875Z",
  "networkType": "ethereum",
  "devdoc": {
    "methods": {}
  },
  "userdoc": {
    "methods": {}
  }
}